{
	"contracts/LendingContract.sol": {
		"LendingContract": {
			"abi": [
				{
					"inputs": [],
					"stateMutability": "nonpayable",
					"type": "constructor"
				},
				{
					"anonymous": false,
					"inputs": [
						{
							"indexed": true,
							"internalType": "uint256",
							"name": "id",
							"type": "uint256"
						},
						{
							"indexed": true,
							"internalType": "address",
							"name": "customer",
							"type": "address"
						},
						{
							"indexed": false,
							"internalType": "uint256",
							"name": "amount",
							"type": "uint256"
						},
						{
							"indexed": false,
							"internalType": "uint256",
							"name": "timeStarted",
							"type": "uint256"
						},
						{
							"indexed": false,
							"internalType": "uint256",
							"name": "timeEnded",
							"type": "uint256"
						}
					],
					"name": "ContractCreated",
					"type": "event"
				},
				{
					"anonymous": false,
					"inputs": [
						{
							"indexed": false,
							"internalType": "uint256",
							"name": "amount",
							"type": "uint256"
						}
					],
					"name": "Deposit",
					"type": "event"
				},
				{
					"anonymous": false,
					"inputs": [
						{
							"indexed": false,
							"internalType": "uint256",
							"name": "amount",
							"type": "uint256"
						}
					],
					"name": "Withdrawal",
					"type": "event"
				},
				{
					"inputs": [
						{
							"internalType": "uint256",
							"name": "",
							"type": "uint256"
						}
					],
					"name": "contracts",
					"outputs": [
						{
							"internalType": "uint256",
							"name": "id",
							"type": "uint256"
						},
						{
							"internalType": "address",
							"name": "customer",
							"type": "address"
						},
						{
							"internalType": "uint256",
							"name": "amount",
							"type": "uint256"
						},
						{
							"internalType": "uint256",
							"name": "timeStarted",
							"type": "uint256"
						},
						{
							"internalType": "uint256",
							"name": "timeEnded",
							"type": "uint256"
						}
					],
					"stateMutability": "view",
					"type": "function"
				},
				{
					"inputs": [
						{
							"internalType": "address",
							"name": "_customer",
							"type": "address"
						},
						{
							"internalType": "uint256",
							"name": "_amount",
							"type": "uint256"
						},
						{
							"internalType": "uint256",
							"name": "_timeEnded",
							"type": "uint256"
						}
					],
					"name": "createContract",
					"outputs": [],
					"stateMutability": "nonpayable",
					"type": "function"
				},
				{
					"inputs": [
						{
							"internalType": "uint256",
							"name": "_amount",
							"type": "uint256"
						}
					],
					"name": "deposit",
					"outputs": [],
					"stateMutability": "nonpayable",
					"type": "function"
				},
				{
					"inputs": [],
					"name": "getBalance",
					"outputs": [
						{
							"internalType": "uint256",
							"name": "",
							"type": "uint256"
						}
					],
					"stateMutability": "view",
					"type": "function"
				},
				{
					"inputs": [
						{
							"internalType": "uint256",
							"name": "_contractId",
							"type": "uint256"
						}
					],
					"name": "getContract",
					"outputs": [
						{
							"components": [
								{
									"internalType": "uint256",
									"name": "id",
									"type": "uint256"
								},
								{
									"internalType": "address",
									"name": "customer",
									"type": "address"
								},
								{
									"internalType": "uint256",
									"name": "amount",
									"type": "uint256"
								},
								{
									"internalType": "uint256",
									"name": "timeStarted",
									"type": "uint256"
								},
								{
									"internalType": "uint256",
									"name": "timeEnded",
									"type": "uint256"
								}
							],
							"internalType": "struct LendingContract.Contract",
							"name": "",
							"type": "tuple"
						}
					],
					"stateMutability": "view",
					"type": "function"
				},
				{
					"inputs": [],
					"name": "owner",
					"outputs": [
						{
							"internalType": "address",
							"name": "",
							"type": "address"
						}
					],
					"stateMutability": "view",
					"type": "function"
				},
				{
					"inputs": [
						{
							"internalType": "uint256",
							"name": "_amount",
							"type": "uint256"
						}
					],
					"name": "withdraw",
					"outputs": [],
					"stateMutability": "nonpayable",
					"type": "function"
				}
			],
			"devdoc": {
				"kind": "dev",
				"methods": {},
				"version": 1
			},
			"evm": {
				"assembly": "    /* \"contracts/LendingContract.sol\":63:2173  contract LendingContract {... */\n  mstore(0x40, 0x80)\n    /* \"contracts/LendingContract.sol\":758:831  constructor() {... */\n  callvalue\n  dup1\n  iszero\n  tag_1\n  jumpi\n  0x00\n  dup1\n  revert\ntag_1:\n  pop\n    /* \"contracts/LendingContract.sol\":791:801  msg.sender */\n  caller\n    /* \"contracts/LendingContract.sol\":783:788  owner */\n  0x00\n  dup1\n    /* \"contracts/LendingContract.sol\":783:801  owner = msg.sender */\n  0x0100\n  exp\n  dup2\n  sload\n  dup2\n  0xffffffffffffffffffffffffffffffffffffffff\n  mul\n  not\n  and\n  swap1\n  dup4\n  0xffffffffffffffffffffffffffffffffffffffff\n  and\n  mul\n  or\n  swap1\n  sstore\n  pop\n    /* \"contracts/LendingContract.sol\":822:823  0 */\n  0x00\n    /* \"contracts/LendingContract.sol\":812:819  balance */\n  0x01\n    /* \"contracts/LendingContract.sol\":812:823  balance = 0 */\n  dup2\n  swap1\n  sstore\n  pop\n    /* \"contracts/LendingContract.sol\":63:2173  contract LendingContract {... */\n  dataSize(sub_0)\n  dup1\n  dataOffset(sub_0)\n  0x00\n  codecopy\n  0x00\n  return\nstop\n\nsub_0: assembly {\n        /* \"contracts/LendingContract.sol\":63:2173  contract LendingContract {... */\n      mstore(0x40, 0x80)\n      callvalue\n      dup1\n      iszero\n      tag_1\n      jumpi\n      0x00\n      dup1\n      revert\n    tag_1:\n      pop\n      jumpi(tag_2, lt(calldatasize, 0x04))\n      shr(0xe0, calldataload(0x00))\n      dup1\n      0x6ebc8c86\n      gt\n      tag_10\n      jumpi\n      dup1\n      0x6ebc8c86\n      eq\n      tag_6\n      jumpi\n      dup1\n      0x8da5cb5b\n      eq\n      tag_7\n      jumpi\n      dup1\n      0xb0d10c39\n      eq\n      tag_8\n      jumpi\n      dup1\n      0xb6b55f25\n      eq\n      tag_9\n      jumpi\n      jump(tag_2)\n    tag_10:\n      dup1\n      0x12065fe0\n      eq\n      tag_3\n      jumpi\n      dup1\n      0x2e1a7d4d\n      eq\n      tag_4\n      jumpi\n      dup1\n      0x474da79a\n      eq\n      tag_5\n      jumpi\n    tag_2:\n      0x00\n      dup1\n      revert\n        /* \"contracts/LendingContract.sol\":2085:2170  function getBalance() public view returns (uint256) {... */\n    tag_3:\n      tag_11\n      tag_12\n      jump\t// in\n    tag_11:\n      mload(0x40)\n      tag_13\n      swap2\n      swap1\n      tag_14\n      jump\t// in\n    tag_13:\n      mload(0x40)\n      dup1\n      swap2\n      sub\n      swap1\n      return\n        /* \"contracts/LendingContract.sol\":1891:2077  function withdraw(uint256 _amount) public onlyOwner {... */\n    tag_4:\n      tag_15\n      0x04\n      dup1\n      calldatasize\n      sub\n      dup2\n      add\n      swap1\n      tag_16\n      swap2\n      swap1\n      tag_17\n      jump\t// in\n    tag_16:\n      tag_18\n      jump\t// in\n    tag_15:\n      stop\n        /* \"contracts/LendingContract.sol\":385:412  Contract[] public contracts */\n    tag_5:\n      tag_19\n      0x04\n      dup1\n      calldatasize\n      sub\n      dup2\n      add\n      swap1\n      tag_20\n      swap2\n      swap1\n      tag_17\n      jump\t// in\n    tag_20:\n      tag_21\n      jump\t// in\n    tag_19:\n      mload(0x40)\n      tag_22\n      swap6\n      swap5\n      swap4\n      swap3\n      swap2\n      swap1\n      tag_23\n      jump\t// in\n    tag_22:\n      mload(0x40)\n      dup1\n      swap2\n      sub\n      swap1\n      return\n        /* \"contracts/LendingContract.sol\":1550:1755  function getContract(uint256 _contractId) public view returns (Contract memory) {... */\n    tag_6:\n      tag_24\n      0x04\n      dup1\n      calldatasize\n      sub\n      dup2\n      add\n      swap1\n      tag_25\n      swap2\n      swap1\n      tag_17\n      jump\t// in\n    tag_25:\n      tag_26\n      jump\t// in\n    tag_24:\n      mload(0x40)\n      tag_27\n      swap2\n      swap1\n      tag_28\n      jump\t// in\n    tag_27:\n      mload(0x40)\n      dup1\n      swap2\n      sub\n      swap1\n      return\n        /* \"contracts/LendingContract.sol\":95:115  address public owner */\n    tag_7:\n      tag_29\n      tag_30\n      jump\t// in\n    tag_29:\n      mload(0x40)\n      tag_31\n      swap2\n      swap1\n      tag_32\n      jump\t// in\n    tag_31:\n      mload(0x40)\n      dup1\n      swap2\n      sub\n      swap1\n      return\n        /* \"contracts/LendingContract.sol\":839:1542  function createContract(address _customer, uint256 _amount, uint256 _timeEnded) public onlyOwner {... */\n    tag_8:\n      tag_33\n      0x04\n      dup1\n      calldatasize\n      sub\n      dup2\n      add\n      swap1\n      tag_34\n      swap2\n      swap1\n      tag_35\n      jump\t// in\n    tag_34:\n      tag_36\n      jump\t// in\n    tag_33:\n      stop\n        /* \"contracts/LendingContract.sol\":1763:1883  function deposit(uint256 _amount) public onlyOwner {... */\n    tag_9:\n      tag_37\n      0x04\n      dup1\n      calldatasize\n      sub\n      dup2\n      add\n      swap1\n      tag_38\n      swap2\n      swap1\n      tag_17\n      jump\t// in\n    tag_38:\n      tag_39\n      jump\t// in\n    tag_37:\n      stop\n        /* \"contracts/LendingContract.sol\":2085:2170  function getBalance() public view returns (uint256) {... */\n    tag_12:\n        /* \"contracts/LendingContract.sol\":2128:2135  uint256 */\n      0x00\n        /* \"contracts/LendingContract.sol\":2155:2162  balance */\n      sload(0x01)\n        /* \"contracts/LendingContract.sol\":2148:2162  return balance */\n      swap1\n      pop\n        /* \"contracts/LendingContract.sol\":2085:2170  function getBalance() public view returns (uint256) {... */\n      swap1\n      jump\t// out\n        /* \"contracts/LendingContract.sol\":1891:2077  function withdraw(uint256 _amount) public onlyOwner {... */\n    tag_18:\n        /* \"contracts/LendingContract.sol\":475:480  owner */\n      0x00\n      dup1\n      sload\n      swap1\n      0x0100\n      exp\n      swap1\n      div\n      0xffffffffffffffffffffffffffffffffffffffff\n      and\n        /* \"contracts/LendingContract.sol\":461:480  msg.sender == owner */\n      0xffffffffffffffffffffffffffffffffffffffff\n      and\n        /* \"contracts/LendingContract.sol\":461:471  msg.sender */\n      caller\n        /* \"contracts/LendingContract.sol\":461:480  msg.sender == owner */\n      0xffffffffffffffffffffffffffffffffffffffff\n      and\n      eq\n        /* \"contracts/LendingContract.sol\":453:523  require(msg.sender == owner, \"Only the owner can perform this action\") */\n      tag_42\n      jumpi\n      mload(0x40)\n      0x08c379a000000000000000000000000000000000000000000000000000000000\n      dup2\n      mstore\n      0x04\n      add\n      tag_43\n      swap1\n      tag_44\n      jump\t// in\n    tag_43:\n      mload(0x40)\n      dup1\n      swap2\n      sub\n      swap1\n      revert\n    tag_42:\n        /* \"contracts/LendingContract.sol\":1973:1980  balance */\n      sload(0x01)\n        /* \"contracts/LendingContract.sol\":1962:1969  _amount */\n      dup2\n        /* \"contracts/LendingContract.sol\":1962:1980  _amount <= balance */\n      gt\n      iszero\n        /* \"contracts/LendingContract.sol\":1954:2005  require(_amount <= balance, \"Insufficient balance\") */\n      tag_46\n      jumpi\n      mload(0x40)\n      0x08c379a000000000000000000000000000000000000000000000000000000000\n      dup2\n      mstore\n      0x04\n      add\n      tag_47\n      swap1\n      tag_48\n      jump\t// in\n    tag_47:\n      mload(0x40)\n      dup1\n      swap2\n      sub\n      swap1\n      revert\n    tag_46:\n        /* \"contracts/LendingContract.sol\":2027:2034  _amount */\n      dup1\n        /* \"contracts/LendingContract.sol\":2016:2023  balance */\n      0x01\n      0x00\n        /* \"contracts/LendingContract.sol\":2016:2034  balance -= _amount */\n      dup3\n      dup3\n      sload\n      tag_49\n      swap2\n      swap1\n      tag_50\n      jump\t// in\n    tag_49:\n      swap3\n      pop\n      pop\n      dup2\n      swap1\n      sstore\n      pop\n        /* \"contracts/LendingContract.sol\":2050:2069  Withdrawal(_amount) */\n      0x4e70a604b23a8edee2b1d0a656e9b9c00b73ad8bb1afc2c59381ee9f69197de7\n        /* \"contracts/LendingContract.sol\":2061:2068  _amount */\n      dup2\n        /* \"contracts/LendingContract.sol\":2050:2069  Withdrawal(_amount) */\n      mload(0x40)\n      tag_51\n      swap2\n      swap1\n      tag_14\n      jump\t// in\n    tag_51:\n      mload(0x40)\n      dup1\n      swap2\n      sub\n      swap1\n      log1\n        /* \"contracts/LendingContract.sol\":1891:2077  function withdraw(uint256 _amount) public onlyOwner {... */\n      pop\n      jump\t// out\n        /* \"contracts/LendingContract.sol\":385:412  Contract[] public contracts */\n    tag_21:\n      0x02\n      dup2\n      dup2\n      sload\n      dup2\n      lt\n      tag_52\n      jumpi\n      0x00\n      dup1\n      revert\n    tag_52:\n      swap1\n      0x00\n      mstore\n      keccak256(0x00, 0x20)\n      swap1\n      0x05\n      mul\n      add\n      0x00\n      swap2\n      pop\n      swap1\n      pop\n      dup1\n      0x00\n      add\n      sload\n      swap1\n      dup1\n      0x01\n      add\n      0x00\n      swap1\n      sload\n      swap1\n      0x0100\n      exp\n      swap1\n      div\n      0xffffffffffffffffffffffffffffffffffffffff\n      and\n      swap1\n      dup1\n      0x02\n      add\n      sload\n      swap1\n      dup1\n      0x03\n      add\n      sload\n      swap1\n      dup1\n      0x04\n      add\n      sload\n      swap1\n      pop\n      dup6\n      jump\t// out\n        /* \"contracts/LendingContract.sol\":1550:1755  function getContract(uint256 _contractId) public view returns (Contract memory) {... */\n    tag_26:\n        /* \"contracts/LendingContract.sol\":1613:1628  Contract memory */\n      tag_54\n      tag_55\n      jump\t// in\n    tag_54:\n        /* \"contracts/LendingContract.sol\":1663:1672  contracts */\n      0x02\n        /* \"contracts/LendingContract.sol\":1663:1679  contracts.length */\n      dup1\n      sload\n      swap1\n      pop\n        /* \"contracts/LendingContract.sol\":1649:1660  _contractId */\n      dup3\n        /* \"contracts/LendingContract.sol\":1649:1679  _contractId < contracts.length */\n      lt\n        /* \"contracts/LendingContract.sol\":1641:1707  require(_contractId < contracts.length, \"Contract does not exist\") */\n      tag_57\n      jumpi\n      mload(0x40)\n      0x08c379a000000000000000000000000000000000000000000000000000000000\n      dup2\n      mstore\n      0x04\n      add\n      tag_58\n      swap1\n      tag_59\n      jump\t// in\n    tag_58:\n      mload(0x40)\n      dup1\n      swap2\n      sub\n      swap1\n      revert\n    tag_57:\n        /* \"contracts/LendingContract.sol\":1725:1734  contracts */\n      0x02\n        /* \"contracts/LendingContract.sol\":1735:1746  _contractId */\n      dup3\n        /* \"contracts/LendingContract.sol\":1725:1747  contracts[_contractId] */\n      dup2\n      sload\n      dup2\n      lt\n      tag_60\n      jumpi\n      tag_61\n      tag_62\n      jump\t// in\n    tag_61:\n    tag_60:\n      swap1\n      0x00\n      mstore\n      keccak256(0x00, 0x20)\n      swap1\n      0x05\n      mul\n      add\n        /* \"contracts/LendingContract.sol\":1718:1747  return contracts[_contractId] */\n      mload(0x40)\n      dup1\n      0xa0\n      add\n      0x40\n      mstore\n      swap1\n      dup2\n      0x00\n      dup3\n      add\n      sload\n      dup2\n      mstore\n      0x20\n      add\n      0x01\n      dup3\n      add\n      0x00\n      swap1\n      sload\n      swap1\n      0x0100\n      exp\n      swap1\n      div\n      0xffffffffffffffffffffffffffffffffffffffff\n      and\n      0xffffffffffffffffffffffffffffffffffffffff\n      and\n      0xffffffffffffffffffffffffffffffffffffffff\n      and\n      dup2\n      mstore\n      0x20\n      add\n      0x02\n      dup3\n      add\n      sload\n      dup2\n      mstore\n      0x20\n      add\n      0x03\n      dup3\n      add\n      sload\n      dup2\n      mstore\n      0x20\n      add\n      0x04\n      dup3\n      add\n      sload\n      dup2\n      mstore\n      pop\n      pop\n      swap1\n      pop\n        /* \"contracts/LendingContract.sol\":1550:1755  function getContract(uint256 _contractId) public view returns (Contract memory) {... */\n      swap2\n      swap1\n      pop\n      jump\t// out\n        /* \"contracts/LendingContract.sol\":95:115  address public owner */\n    tag_30:\n      0x00\n      dup1\n      sload\n      swap1\n      0x0100\n      exp\n      swap1\n      div\n      0xffffffffffffffffffffffffffffffffffffffff\n      and\n      dup2\n      jump\t// out\n        /* \"contracts/LendingContract.sol\":839:1542  function createContract(address _customer, uint256 _amount, uint256 _timeEnded) public onlyOwner {... */\n    tag_36:\n        /* \"contracts/LendingContract.sol\":475:480  owner */\n      0x00\n      dup1\n      sload\n      swap1\n      0x0100\n      exp\n      swap1\n      div\n      0xffffffffffffffffffffffffffffffffffffffff\n      and\n        /* \"contracts/LendingContract.sol\":461:480  msg.sender == owner */\n      0xffffffffffffffffffffffffffffffffffffffff\n      and\n        /* \"contracts/LendingContract.sol\":461:471  msg.sender */\n      caller\n        /* \"contracts/LendingContract.sol\":461:480  msg.sender == owner */\n      0xffffffffffffffffffffffffffffffffffffffff\n      and\n      eq\n        /* \"contracts/LendingContract.sol\":453:523  require(msg.sender == owner, \"Only the owner can perform this action\") */\n      tag_65\n      jumpi\n      mload(0x40)\n      0x08c379a000000000000000000000000000000000000000000000000000000000\n      dup2\n      mstore\n      0x04\n      add\n      tag_66\n      swap1\n      tag_44\n      jump\t// in\n    tag_66:\n      mload(0x40)\n      dup1\n      swap2\n      sub\n      swap1\n      revert\n    tag_65:\n        /* \"contracts/LendingContract.sol\":966:973  balance */\n      sload(0x01)\n        /* \"contracts/LendingContract.sol\":955:962  _amount */\n      dup3\n        /* \"contracts/LendingContract.sol\":955:973  _amount <= balance */\n      gt\n      iszero\n        /* \"contracts/LendingContract.sol\":947:998  require(_amount <= balance, \"Insufficient balance\") */\n      tag_68\n      jumpi\n      mload(0x40)\n      0x08c379a000000000000000000000000000000000000000000000000000000000\n      dup2\n      mstore\n      0x04\n      add\n      tag_69\n      swap1\n      tag_48\n      jump\t// in\n    tag_69:\n      mload(0x40)\n      dup1\n      swap2\n      sub\n      swap1\n      revert\n    tag_68:\n        /* \"contracts/LendingContract.sol\":1030:1045  block.timestamp */\n      timestamp\n        /* \"contracts/LendingContract.sol\":1017:1027  _timeEnded */\n      dup2\n        /* \"contracts/LendingContract.sol\":1017:1045  _timeEnded > block.timestamp */\n      gt\n        /* \"contracts/LendingContract.sol\":1009:1080  require(_timeEnded > block.timestamp, \"End time must be in the future\") */\n      tag_70\n      jumpi\n      mload(0x40)\n      0x08c379a000000000000000000000000000000000000000000000000000000000\n      dup2\n      mstore\n      0x04\n      add\n      tag_71\n      swap1\n      tag_72\n      jump\t// in\n    tag_71:\n      mload(0x40)\n      dup1\n      swap2\n      sub\n      swap1\n      revert\n    tag_70:\n        /* \"contracts/LendingContract.sol\":1093:1114  uint256 newContractId */\n      0x00\n        /* \"contracts/LendingContract.sol\":1117:1126  contracts */\n      0x02\n        /* \"contracts/LendingContract.sol\":1117:1133  contracts.length */\n      dup1\n      sload\n      swap1\n      pop\n        /* \"contracts/LendingContract.sol\":1093:1133  uint256 newContractId = contracts.length */\n      swap1\n      pop\n        /* \"contracts/LendingContract.sol\":1144:1171  Contract memory newContract */\n      0x00\n        /* \"contracts/LendingContract.sol\":1174:1370  Contract({... */\n      mload(0x40)\n      dup1\n      0xa0\n      add\n      0x40\n      mstore\n      dup1\n        /* \"contracts/LendingContract.sol\":1202:1215  newContractId */\n      dup4\n        /* \"contracts/LendingContract.sol\":1174:1370  Contract({... */\n      dup2\n      mstore\n      0x20\n      add\n        /* \"contracts/LendingContract.sol\":1240:1249  _customer */\n      dup7\n        /* \"contracts/LendingContract.sol\":1174:1370  Contract({... */\n      0xffffffffffffffffffffffffffffffffffffffff\n      and\n      dup2\n      mstore\n      0x20\n      add\n        /* \"contracts/LendingContract.sol\":1272:1279  _amount */\n      dup6\n        /* \"contracts/LendingContract.sol\":1174:1370  Contract({... */\n      dup2\n      mstore\n      0x20\n      add\n        /* \"contracts/LendingContract.sol\":1307:1322  block.timestamp */\n      timestamp\n        /* \"contracts/LendingContract.sol\":1174:1370  Contract({... */\n      dup2\n      mstore\n      0x20\n      add\n        /* \"contracts/LendingContract.sol\":1348:1358  _timeEnded */\n      dup5\n        /* \"contracts/LendingContract.sol\":1174:1370  Contract({... */\n      dup2\n      mstore\n      pop\n        /* \"contracts/LendingContract.sol\":1144:1370  Contract memory newContract = Contract({... */\n      swap1\n      pop\n        /* \"contracts/LendingContract.sol\":1381:1390  contracts */\n      0x02\n        /* \"contracts/LendingContract.sol\":1396:1407  newContract */\n      dup2\n        /* \"contracts/LendingContract.sol\":1381:1408  contracts.push(newContract) */\n      swap1\n      dup1\n      0x01\n      dup2\n      sload\n      add\n      dup1\n      dup3\n      sstore\n      dup1\n      swap2\n      pop\n      pop\n      0x01\n      swap1\n      sub\n      swap1\n      0x00\n      mstore\n      keccak256(0x00, 0x20)\n      swap1\n      0x05\n      mul\n      add\n      0x00\n      swap1\n      swap2\n      swap1\n      swap2\n      swap1\n      swap2\n      pop\n      0x00\n      dup3\n      add\n      mload\n      dup2\n      0x00\n      add\n      sstore\n      0x20\n      dup3\n      add\n      mload\n      dup2\n      0x01\n      add\n      exp(0x0100, 0x00)\n      dup2\n      sload\n      dup2\n      0xffffffffffffffffffffffffffffffffffffffff\n      mul\n      not\n      and\n      swap1\n      dup4\n      0xffffffffffffffffffffffffffffffffffffffff\n      and\n      mul\n      or\n      swap1\n      sstore\n      pop\n      0x40\n      dup3\n      add\n      mload\n      dup2\n      0x02\n      add\n      sstore\n      0x60\n      dup3\n      add\n      mload\n      dup2\n      0x03\n      add\n      sstore\n      0x80\n      dup3\n      add\n      mload\n      dup2\n      0x04\n      add\n      sstore\n      pop\n      pop\n        /* \"contracts/LendingContract.sol\":1430:1437  _amount */\n      dup4\n        /* \"contracts/LendingContract.sol\":1419:1426  balance */\n      0x01\n      0x00\n        /* \"contracts/LendingContract.sol\":1419:1437  balance -= _amount */\n      dup3\n      dup3\n      sload\n      tag_74\n      swap2\n      swap1\n      tag_50\n      jump\t// in\n    tag_74:\n      swap3\n      pop\n      pop\n      dup2\n      swap1\n      sstore\n      pop\n        /* \"contracts/LendingContract.sol\":1486:1495  _customer */\n      dup5\n        /* \"contracts/LendingContract.sol\":1455:1534  ContractCreated(newContractId, _customer, _amount, block.timestamp, _timeEnded) */\n      0xffffffffffffffffffffffffffffffffffffffff\n      and\n        /* \"contracts/LendingContract.sol\":1471:1484  newContractId */\n      dup3\n        /* \"contracts/LendingContract.sol\":1455:1534  ContractCreated(newContractId, _customer, _amount, block.timestamp, _timeEnded) */\n      0x807b3969748ed08fd5b6e42c43949c80133560c807529c456c531f6fb0c55709\n        /* \"contracts/LendingContract.sol\":1497:1504  _amount */\n      dup7\n        /* \"contracts/LendingContract.sol\":1506:1521  block.timestamp */\n      timestamp\n        /* \"contracts/LendingContract.sol\":1523:1533  _timeEnded */\n      dup8\n        /* \"contracts/LendingContract.sol\":1455:1534  ContractCreated(newContractId, _customer, _amount, block.timestamp, _timeEnded) */\n      mload(0x40)\n      tag_75\n      swap4\n      swap3\n      swap2\n      swap1\n      tag_76\n      jump\t// in\n    tag_75:\n      mload(0x40)\n      dup1\n      swap2\n      sub\n      swap1\n      log3\n        /* \"contracts/LendingContract.sol\":936:1542  {... */\n      pop\n      pop\n        /* \"contracts/LendingContract.sol\":839:1542  function createContract(address _customer, uint256 _amount, uint256 _timeEnded) public onlyOwner {... */\n      pop\n      pop\n      pop\n      jump\t// out\n        /* \"contracts/LendingContract.sol\":1763:1883  function deposit(uint256 _amount) public onlyOwner {... */\n    tag_39:\n        /* \"contracts/LendingContract.sol\":475:480  owner */\n      0x00\n      dup1\n      sload\n      swap1\n      0x0100\n      exp\n      swap1\n      div\n      0xffffffffffffffffffffffffffffffffffffffff\n      and\n        /* \"contracts/LendingContract.sol\":461:480  msg.sender == owner */\n      0xffffffffffffffffffffffffffffffffffffffff\n      and\n        /* \"contracts/LendingContract.sol\":461:471  msg.sender */\n      caller\n        /* \"contracts/LendingContract.sol\":461:480  msg.sender == owner */\n      0xffffffffffffffffffffffffffffffffffffffff\n      and\n      eq\n        /* \"contracts/LendingContract.sol\":453:523  require(msg.sender == owner, \"Only the owner can perform this action\") */\n      tag_78\n      jumpi\n      mload(0x40)\n      0x08c379a000000000000000000000000000000000000000000000000000000000\n      dup2\n      mstore\n      0x04\n      add\n      tag_79\n      swap1\n      tag_44\n      jump\t// in\n    tag_79:\n      mload(0x40)\n      dup1\n      swap2\n      sub\n      swap1\n      revert\n    tag_78:\n        /* \"contracts/LendingContract.sol\":1836:1843  _amount */\n      dup1\n        /* \"contracts/LendingContract.sol\":1825:1832  balance */\n      0x01\n      0x00\n        /* \"contracts/LendingContract.sol\":1825:1843  balance += _amount */\n      dup3\n      dup3\n      sload\n      tag_81\n      swap2\n      swap1\n      tag_82\n      jump\t// in\n    tag_81:\n      swap3\n      pop\n      pop\n      dup2\n      swap1\n      sstore\n      pop\n        /* \"contracts/LendingContract.sol\":1859:1875  Deposit(_amount) */\n      0x4d6ce1e535dbade1c23defba91e23b8f791ce5edc0cc320257a2b364e4e38426\n        /* \"contracts/LendingContract.sol\":1867:1874  _amount */\n      dup2\n        /* \"contracts/LendingContract.sol\":1859:1875  Deposit(_amount) */\n      mload(0x40)\n      tag_83\n      swap2\n      swap1\n      tag_14\n      jump\t// in\n    tag_83:\n      mload(0x40)\n      dup1\n      swap2\n      sub\n      swap1\n      log1\n        /* \"contracts/LendingContract.sol\":1763:1883  function deposit(uint256 _amount) public onlyOwner {... */\n      pop\n      jump\t// out\n    tag_55:\n      mload(0x40)\n      dup1\n      0xa0\n      add\n      0x40\n      mstore\n      dup1\n      0x00\n      dup2\n      mstore\n      0x20\n      add\n      and(0xffffffffffffffffffffffffffffffffffffffff, 0x00)\n      dup2\n      mstore\n      0x20\n      add\n      0x00\n      dup2\n      mstore\n      0x20\n      add\n      0x00\n      dup2\n      mstore\n      0x20\n      add\n      0x00\n      dup2\n      mstore\n      pop\n      swap1\n      jump\t// out\n        /* \"#utility.yul\":7:84   */\n    tag_84:\n        /* \"#utility.yul\":44:51   */\n      0x00\n        /* \"#utility.yul\":73:78   */\n      dup2\n        /* \"#utility.yul\":62:78   */\n      swap1\n      pop\n        /* \"#utility.yul\":7:84   */\n      swap2\n      swap1\n      pop\n      jump\t// out\n        /* \"#utility.yul\":90:208   */\n    tag_85:\n        /* \"#utility.yul\":177:201   */\n      tag_112\n        /* \"#utility.yul\":195:200   */\n      dup2\n        /* \"#utility.yul\":177:201   */\n      tag_84\n      jump\t// in\n    tag_112:\n        /* \"#utility.yul\":172:175   */\n      dup3\n        /* \"#utility.yul\":165:202   */\n      mstore\n        /* \"#utility.yul\":90:208   */\n      pop\n      pop\n      jump\t// out\n        /* \"#utility.yul\":214:436   */\n    tag_14:\n        /* \"#utility.yul\":307:311   */\n      0x00\n        /* \"#utility.yul\":345:347   */\n      0x20\n        /* \"#utility.yul\":334:343   */\n      dup3\n        /* \"#utility.yul\":330:348   */\n      add\n        /* \"#utility.yul\":322:348   */\n      swap1\n      pop\n        /* \"#utility.yul\":358:429   */\n      tag_114\n        /* \"#utility.yul\":426:427   */\n      0x00\n        /* \"#utility.yul\":415:424   */\n      dup4\n        /* \"#utility.yul\":411:428   */\n      add\n        /* \"#utility.yul\":402:408   */\n      dup5\n        /* \"#utility.yul\":358:429   */\n      tag_85\n      jump\t// in\n    tag_114:\n        /* \"#utility.yul\":214:436   */\n      swap3\n      swap2\n      pop\n      pop\n      jump\t// out\n        /* \"#utility.yul\":523:640   */\n    tag_87:\n        /* \"#utility.yul\":632:633   */\n      0x00\n        /* \"#utility.yul\":629:630   */\n      dup1\n        /* \"#utility.yul\":622:634   */\n      revert\n        /* \"#utility.yul\":769:891   */\n    tag_89:\n        /* \"#utility.yul\":842:866   */\n      tag_119\n        /* \"#utility.yul\":860:865   */\n      dup2\n        /* \"#utility.yul\":842:866   */\n      tag_84\n      jump\t// in\n    tag_119:\n        /* \"#utility.yul\":835:840   */\n      dup2\n        /* \"#utility.yul\":832:867   */\n      eq\n        /* \"#utility.yul\":822:885   */\n      tag_120\n      jumpi\n        /* \"#utility.yul\":881:882   */\n      0x00\n        /* \"#utility.yul\":878:879   */\n      dup1\n        /* \"#utility.yul\":871:883   */\n      revert\n        /* \"#utility.yul\":822:885   */\n    tag_120:\n        /* \"#utility.yul\":769:891   */\n      pop\n      jump\t// out\n        /* \"#utility.yul\":897:1036   */\n    tag_90:\n        /* \"#utility.yul\":943:948   */\n      0x00\n        /* \"#utility.yul\":981:987   */\n      dup2\n        /* \"#utility.yul\":968:988   */\n      calldataload\n        /* \"#utility.yul\":959:988   */\n      swap1\n      pop\n        /* \"#utility.yul\":997:1030   */\n      tag_122\n        /* \"#utility.yul\":1024:1029   */\n      dup2\n        /* \"#utility.yul\":997:1030   */\n      tag_89\n      jump\t// in\n    tag_122:\n        /* \"#utility.yul\":897:1036   */\n      swap3\n      swap2\n      pop\n      pop\n      jump\t// out\n        /* \"#utility.yul\":1042:1371   */\n    tag_17:\n        /* \"#utility.yul\":1101:1107   */\n      0x00\n        /* \"#utility.yul\":1150:1152   */\n      0x20\n        /* \"#utility.yul\":1138:1147   */\n      dup3\n        /* \"#utility.yul\":1129:1136   */\n      dup5\n        /* \"#utility.yul\":1125:1148   */\n      sub\n        /* \"#utility.yul\":1121:1153   */\n      slt\n        /* \"#utility.yul\":1118:1237   */\n      iszero\n      tag_124\n      jumpi\n        /* \"#utility.yul\":1156:1235   */\n      tag_125\n      tag_87\n      jump\t// in\n    tag_125:\n        /* \"#utility.yul\":1118:1237   */\n    tag_124:\n        /* \"#utility.yul\":1276:1277   */\n      0x00\n        /* \"#utility.yul\":1301:1354   */\n      tag_126\n        /* \"#utility.yul\":1346:1353   */\n      dup5\n        /* \"#utility.yul\":1337:1343   */\n      dup3\n        /* \"#utility.yul\":1326:1335   */\n      dup6\n        /* \"#utility.yul\":1322:1344   */\n      add\n        /* \"#utility.yul\":1301:1354   */\n      tag_90\n      jump\t// in\n    tag_126:\n        /* \"#utility.yul\":1291:1354   */\n      swap2\n      pop\n        /* \"#utility.yul\":1247:1364   */\n      pop\n        /* \"#utility.yul\":1042:1371   */\n      swap3\n      swap2\n      pop\n      pop\n      jump\t// out\n        /* \"#utility.yul\":1377:1503   */\n    tag_91:\n        /* \"#utility.yul\":1414:1421   */\n      0x00\n        /* \"#utility.yul\":1454:1496   */\n      0xffffffffffffffffffffffffffffffffffffffff\n        /* \"#utility.yul\":1447:1452   */\n      dup3\n        /* \"#utility.yul\":1443:1497   */\n      and\n        /* \"#utility.yul\":1432:1497   */\n      swap1\n      pop\n        /* \"#utility.yul\":1377:1503   */\n      swap2\n      swap1\n      pop\n      jump\t// out\n        /* \"#utility.yul\":1509:1605   */\n    tag_92:\n        /* \"#utility.yul\":1546:1553   */\n      0x00\n        /* \"#utility.yul\":1575:1599   */\n      tag_129\n        /* \"#utility.yul\":1593:1598   */\n      dup3\n        /* \"#utility.yul\":1575:1599   */\n      tag_91\n      jump\t// in\n    tag_129:\n        /* \"#utility.yul\":1564:1599   */\n      swap1\n      pop\n        /* \"#utility.yul\":1509:1605   */\n      swap2\n      swap1\n      pop\n      jump\t// out\n        /* \"#utility.yul\":1611:1729   */\n    tag_93:\n        /* \"#utility.yul\":1698:1722   */\n      tag_131\n        /* \"#utility.yul\":1716:1721   */\n      dup2\n        /* \"#utility.yul\":1698:1722   */\n      tag_92\n      jump\t// in\n    tag_131:\n        /* \"#utility.yul\":1693:1696   */\n      dup3\n        /* \"#utility.yul\":1686:1723   */\n      mstore\n        /* \"#utility.yul\":1611:1729   */\n      pop\n      pop\n      jump\t// out\n        /* \"#utility.yul\":1735:2399   */\n    tag_23:\n        /* \"#utility.yul\":1940:1944   */\n      0x00\n        /* \"#utility.yul\":1978:1981   */\n      0xa0\n        /* \"#utility.yul\":1967:1976   */\n      dup3\n        /* \"#utility.yul\":1963:1982   */\n      add\n        /* \"#utility.yul\":1955:1982   */\n      swap1\n      pop\n        /* \"#utility.yul\":1992:2063   */\n      tag_133\n        /* \"#utility.yul\":2060:2061   */\n      0x00\n        /* \"#utility.yul\":2049:2058   */\n      dup4\n        /* \"#utility.yul\":2045:2062   */\n      add\n        /* \"#utility.yul\":2036:2042   */\n      dup9\n        /* \"#utility.yul\":1992:2063   */\n      tag_85\n      jump\t// in\n    tag_133:\n        /* \"#utility.yul\":2073:2145   */\n      tag_134\n        /* \"#utility.yul\":2141:2143   */\n      0x20\n        /* \"#utility.yul\":2130:2139   */\n      dup4\n        /* \"#utility.yul\":2126:2144   */\n      add\n        /* \"#utility.yul\":2117:2123   */\n      dup8\n        /* \"#utility.yul\":2073:2145   */\n      tag_93\n      jump\t// in\n    tag_134:\n        /* \"#utility.yul\":2155:2227   */\n      tag_135\n        /* \"#utility.yul\":2223:2225   */\n      0x40\n        /* \"#utility.yul\":2212:2221   */\n      dup4\n        /* \"#utility.yul\":2208:2226   */\n      add\n        /* \"#utility.yul\":2199:2205   */\n      dup7\n        /* \"#utility.yul\":2155:2227   */\n      tag_85\n      jump\t// in\n    tag_135:\n        /* \"#utility.yul\":2237:2309   */\n      tag_136\n        /* \"#utility.yul\":2305:2307   */\n      0x60\n        /* \"#utility.yul\":2294:2303   */\n      dup4\n        /* \"#utility.yul\":2290:2308   */\n      add\n        /* \"#utility.yul\":2281:2287   */\n      dup6\n        /* \"#utility.yul\":2237:2309   */\n      tag_85\n      jump\t// in\n    tag_136:\n        /* \"#utility.yul\":2319:2392   */\n      tag_137\n        /* \"#utility.yul\":2387:2390   */\n      0x80\n        /* \"#utility.yul\":2376:2385   */\n      dup4\n        /* \"#utility.yul\":2372:2391   */\n      add\n        /* \"#utility.yul\":2363:2369   */\n      dup5\n        /* \"#utility.yul\":2319:2392   */\n      tag_85\n      jump\t// in\n    tag_137:\n        /* \"#utility.yul\":1735:2399   */\n      swap7\n      swap6\n      pop\n      pop\n      pop\n      pop\n      pop\n      pop\n      jump\t// out\n        /* \"#utility.yul\":2405:2513   */\n    tag_94:\n        /* \"#utility.yul\":2482:2506   */\n      tag_139\n        /* \"#utility.yul\":2500:2505   */\n      dup2\n        /* \"#utility.yul\":2482:2506   */\n      tag_84\n      jump\t// in\n    tag_139:\n        /* \"#utility.yul\":2477:2480   */\n      dup3\n        /* \"#utility.yul\":2470:2507   */\n      mstore\n        /* \"#utility.yul\":2405:2513   */\n      pop\n      pop\n      jump\t// out\n        /* \"#utility.yul\":2519:2627   */\n    tag_95:\n        /* \"#utility.yul\":2596:2620   */\n      tag_141\n        /* \"#utility.yul\":2614:2619   */\n      dup2\n        /* \"#utility.yul\":2596:2620   */\n      tag_92\n      jump\t// in\n    tag_141:\n        /* \"#utility.yul\":2591:2594   */\n      dup3\n        /* \"#utility.yul\":2584:2621   */\n      mstore\n        /* \"#utility.yul\":2519:2627   */\n      pop\n      pop\n      jump\t// out\n        /* \"#utility.yul\":2707:3750   */\n    tag_96:\n        /* \"#utility.yul\":2852:2856   */\n      0xa0\n        /* \"#utility.yul\":2847:2850   */\n      dup3\n        /* \"#utility.yul\":2843:2857   */\n      add\n        /* \"#utility.yul\":2937:2941   */\n      0x00\n        /* \"#utility.yul\":2930:2935   */\n      dup3\n        /* \"#utility.yul\":2926:2942   */\n      add\n        /* \"#utility.yul\":2920:2943   */\n      mload\n        /* \"#utility.yul\":2956:3019   */\n      tag_143\n        /* \"#utility.yul\":3013:3017   */\n      0x00\n        /* \"#utility.yul\":3008:3011   */\n      dup6\n        /* \"#utility.yul\":3004:3018   */\n      add\n        /* \"#utility.yul\":2990:3002   */\n      dup3\n        /* \"#utility.yul\":2956:3019   */\n      tag_94\n      jump\t// in\n    tag_143:\n        /* \"#utility.yul\":2867:3029   */\n      pop\n        /* \"#utility.yul\":3115:3119   */\n      0x20\n        /* \"#utility.yul\":3108:3113   */\n      dup3\n        /* \"#utility.yul\":3104:3120   */\n      add\n        /* \"#utility.yul\":3098:3121   */\n      mload\n        /* \"#utility.yul\":3134:3197   */\n      tag_144\n        /* \"#utility.yul\":3191:3195   */\n      0x20\n        /* \"#utility.yul\":3186:3189   */\n      dup6\n        /* \"#utility.yul\":3182:3196   */\n      add\n        /* \"#utility.yul\":3168:3180   */\n      dup3\n        /* \"#utility.yul\":3134:3197   */\n      tag_95\n      jump\t// in\n    tag_144:\n        /* \"#utility.yul\":3039:3207   */\n      pop\n        /* \"#utility.yul\":3291:3295   */\n      0x40\n        /* \"#utility.yul\":3284:3289   */\n      dup3\n        /* \"#utility.yul\":3280:3296   */\n      add\n        /* \"#utility.yul\":3274:3297   */\n      mload\n        /* \"#utility.yul\":3310:3373   */\n      tag_145\n        /* \"#utility.yul\":3367:3371   */\n      0x40\n        /* \"#utility.yul\":3362:3365   */\n      dup6\n        /* \"#utility.yul\":3358:3372   */\n      add\n        /* \"#utility.yul\":3344:3356   */\n      dup3\n        /* \"#utility.yul\":3310:3373   */\n      tag_94\n      jump\t// in\n    tag_145:\n        /* \"#utility.yul\":3217:3383   */\n      pop\n        /* \"#utility.yul\":3472:3476   */\n      0x60\n        /* \"#utility.yul\":3465:3470   */\n      dup3\n        /* \"#utility.yul\":3461:3477   */\n      add\n        /* \"#utility.yul\":3455:3478   */\n      mload\n        /* \"#utility.yul\":3491:3554   */\n      tag_146\n        /* \"#utility.yul\":3548:3552   */\n      0x60\n        /* \"#utility.yul\":3543:3546   */\n      dup6\n        /* \"#utility.yul\":3539:3553   */\n      add\n        /* \"#utility.yul\":3525:3537   */\n      dup3\n        /* \"#utility.yul\":3491:3554   */\n      tag_94\n      jump\t// in\n    tag_146:\n        /* \"#utility.yul\":3393:3564   */\n      pop\n        /* \"#utility.yul\":3651:3655   */\n      0x80\n        /* \"#utility.yul\":3644:3649   */\n      dup3\n        /* \"#utility.yul\":3640:3656   */\n      add\n        /* \"#utility.yul\":3634:3657   */\n      mload\n        /* \"#utility.yul\":3670:3733   */\n      tag_147\n        /* \"#utility.yul\":3727:3731   */\n      0x80\n        /* \"#utility.yul\":3722:3725   */\n      dup6\n        /* \"#utility.yul\":3718:3732   */\n      add\n        /* \"#utility.yul\":3704:3716   */\n      dup3\n        /* \"#utility.yul\":3670:3733   */\n      tag_94\n      jump\t// in\n    tag_147:\n        /* \"#utility.yul\":3574:3743   */\n      pop\n        /* \"#utility.yul\":2821:3750   */\n      pop\n        /* \"#utility.yul\":2707:3750   */\n      pop\n      pop\n      jump\t// out\n        /* \"#utility.yul\":3756:4075   */\n    tag_28:\n        /* \"#utility.yul\":3897:3901   */\n      0x00\n        /* \"#utility.yul\":3935:3938   */\n      0xa0\n        /* \"#utility.yul\":3924:3933   */\n      dup3\n        /* \"#utility.yul\":3920:3939   */\n      add\n        /* \"#utility.yul\":3912:3939   */\n      swap1\n      pop\n        /* \"#utility.yul\":3949:4068   */\n      tag_149\n        /* \"#utility.yul\":4065:4066   */\n      0x00\n        /* \"#utility.yul\":4054:4063   */\n      dup4\n        /* \"#utility.yul\":4050:4067   */\n      add\n        /* \"#utility.yul\":4041:4047   */\n      dup5\n        /* \"#utility.yul\":3949:4068   */\n      tag_96\n      jump\t// in\n    tag_149:\n        /* \"#utility.yul\":3756:4075   */\n      swap3\n      swap2\n      pop\n      pop\n      jump\t// out\n        /* \"#utility.yul\":4081:4303   */\n    tag_32:\n        /* \"#utility.yul\":4174:4178   */\n      0x00\n        /* \"#utility.yul\":4212:4214   */\n      0x20\n        /* \"#utility.yul\":4201:4210   */\n      dup3\n        /* \"#utility.yul\":4197:4215   */\n      add\n        /* \"#utility.yul\":4189:4215   */\n      swap1\n      pop\n        /* \"#utility.yul\":4225:4296   */\n      tag_151\n        /* \"#utility.yul\":4293:4294   */\n      0x00\n        /* \"#utility.yul\":4282:4291   */\n      dup4\n        /* \"#utility.yul\":4278:4295   */\n      add\n        /* \"#utility.yul\":4269:4275   */\n      dup5\n        /* \"#utility.yul\":4225:4296   */\n      tag_93\n      jump\t// in\n    tag_151:\n        /* \"#utility.yul\":4081:4303   */\n      swap3\n      swap2\n      pop\n      pop\n      jump\t// out\n        /* \"#utility.yul\":4309:4431   */\n    tag_97:\n        /* \"#utility.yul\":4382:4406   */\n      tag_153\n        /* \"#utility.yul\":4400:4405   */\n      dup2\n        /* \"#utility.yul\":4382:4406   */\n      tag_92\n      jump\t// in\n    tag_153:\n        /* \"#utility.yul\":4375:4380   */\n      dup2\n        /* \"#utility.yul\":4372:4407   */\n      eq\n        /* \"#utility.yul\":4362:4425   */\n      tag_154\n      jumpi\n        /* \"#utility.yul\":4421:4422   */\n      0x00\n        /* \"#utility.yul\":4418:4419   */\n      dup1\n        /* \"#utility.yul\":4411:4423   */\n      revert\n        /* \"#utility.yul\":4362:4425   */\n    tag_154:\n        /* \"#utility.yul\":4309:4431   */\n      pop\n      jump\t// out\n        /* \"#utility.yul\":4437:4576   */\n    tag_98:\n        /* \"#utility.yul\":4483:4488   */\n      0x00\n        /* \"#utility.yul\":4521:4527   */\n      dup2\n        /* \"#utility.yul\":4508:4528   */\n      calldataload\n        /* \"#utility.yul\":4499:4528   */\n      swap1\n      pop\n        /* \"#utility.yul\":4537:4570   */\n      tag_156\n        /* \"#utility.yul\":4564:4569   */\n      dup2\n        /* \"#utility.yul\":4537:4570   */\n      tag_97\n      jump\t// in\n    tag_156:\n        /* \"#utility.yul\":4437:4576   */\n      swap3\n      swap2\n      pop\n      pop\n      jump\t// out\n        /* \"#utility.yul\":4582:5201   */\n    tag_35:\n        /* \"#utility.yul\":4659:4665   */\n      0x00\n        /* \"#utility.yul\":4667:4673   */\n      dup1\n        /* \"#utility.yul\":4675:4681   */\n      0x00\n        /* \"#utility.yul\":4724:4726   */\n      0x60\n        /* \"#utility.yul\":4712:4721   */\n      dup5\n        /* \"#utility.yul\":4703:4710   */\n      dup7\n        /* \"#utility.yul\":4699:4722   */\n      sub\n        /* \"#utility.yul\":4695:4727   */\n      slt\n        /* \"#utility.yul\":4692:4811   */\n      iszero\n      tag_158\n      jumpi\n        /* \"#utility.yul\":4730:4809   */\n      tag_159\n      tag_87\n      jump\t// in\n    tag_159:\n        /* \"#utility.yul\":4692:4811   */\n    tag_158:\n        /* \"#utility.yul\":4850:4851   */\n      0x00\n        /* \"#utility.yul\":4875:4928   */\n      tag_160\n        /* \"#utility.yul\":4920:4927   */\n      dup7\n        /* \"#utility.yul\":4911:4917   */\n      dup3\n        /* \"#utility.yul\":4900:4909   */\n      dup8\n        /* \"#utility.yul\":4896:4918   */\n      add\n        /* \"#utility.yul\":4875:4928   */\n      tag_98\n      jump\t// in\n    tag_160:\n        /* \"#utility.yul\":4865:4928   */\n      swap4\n      pop\n        /* \"#utility.yul\":4821:4938   */\n      pop\n        /* \"#utility.yul\":4977:4979   */\n      0x20\n        /* \"#utility.yul\":5003:5056   */\n      tag_161\n        /* \"#utility.yul\":5048:5055   */\n      dup7\n        /* \"#utility.yul\":5039:5045   */\n      dup3\n        /* \"#utility.yul\":5028:5037   */\n      dup8\n        /* \"#utility.yul\":5024:5046   */\n      add\n        /* \"#utility.yul\":5003:5056   */\n      tag_90\n      jump\t// in\n    tag_161:\n        /* \"#utility.yul\":4993:5056   */\n      swap3\n      pop\n        /* \"#utility.yul\":4948:5066   */\n      pop\n        /* \"#utility.yul\":5105:5107   */\n      0x40\n        /* \"#utility.yul\":5131:5184   */\n      tag_162\n        /* \"#utility.yul\":5176:5183   */\n      dup7\n        /* \"#utility.yul\":5167:5173   */\n      dup3\n        /* \"#utility.yul\":5156:5165   */\n      dup8\n        /* \"#utility.yul\":5152:5174   */\n      add\n        /* \"#utility.yul\":5131:5184   */\n      tag_90\n      jump\t// in\n    tag_162:\n        /* \"#utility.yul\":5121:5184   */\n      swap2\n      pop\n        /* \"#utility.yul\":5076:5194   */\n      pop\n        /* \"#utility.yul\":4582:5201   */\n      swap3\n      pop\n      swap3\n      pop\n      swap3\n      jump\t// out\n        /* \"#utility.yul\":5207:5376   */\n    tag_99:\n        /* \"#utility.yul\":5291:5302   */\n      0x00\n        /* \"#utility.yul\":5325:5331   */\n      dup3\n        /* \"#utility.yul\":5320:5323   */\n      dup3\n        /* \"#utility.yul\":5313:5332   */\n      mstore\n        /* \"#utility.yul\":5365:5369   */\n      0x20\n        /* \"#utility.yul\":5360:5363   */\n      dup3\n        /* \"#utility.yul\":5356:5370   */\n      add\n        /* \"#utility.yul\":5341:5370   */\n      swap1\n      pop\n        /* \"#utility.yul\":5207:5376   */\n      swap3\n      swap2\n      pop\n      pop\n      jump\t// out\n        /* \"#utility.yul\":5382:5607   */\n    tag_100:\n        /* \"#utility.yul\":5522:5556   */\n      0x4f6e6c7920746865206f776e65722063616e20706572666f726d207468697320\n        /* \"#utility.yul\":5518:5519   */\n      0x00\n        /* \"#utility.yul\":5510:5516   */\n      dup3\n        /* \"#utility.yul\":5506:5520   */\n      add\n        /* \"#utility.yul\":5499:5557   */\n      mstore\n        /* \"#utility.yul\":5591:5599   */\n      0x616374696f6e0000000000000000000000000000000000000000000000000000\n        /* \"#utility.yul\":5586:5588   */\n      0x20\n        /* \"#utility.yul\":5578:5584   */\n      dup3\n        /* \"#utility.yul\":5574:5589   */\n      add\n        /* \"#utility.yul\":5567:5600   */\n      mstore\n        /* \"#utility.yul\":5382:5607   */\n      pop\n      jump\t// out\n        /* \"#utility.yul\":5613:5979   */\n    tag_101:\n        /* \"#utility.yul\":5755:5758   */\n      0x00\n        /* \"#utility.yul\":5776:5843   */\n      tag_166\n        /* \"#utility.yul\":5840:5842   */\n      0x26\n        /* \"#utility.yul\":5835:5838   */\n      dup4\n        /* \"#utility.yul\":5776:5843   */\n      tag_99\n      jump\t// in\n    tag_166:\n        /* \"#utility.yul\":5769:5843   */\n      swap2\n      pop\n        /* \"#utility.yul\":5852:5945   */\n      tag_167\n        /* \"#utility.yul\":5941:5944   */\n      dup3\n        /* \"#utility.yul\":5852:5945   */\n      tag_100\n      jump\t// in\n    tag_167:\n        /* \"#utility.yul\":5970:5972   */\n      0x40\n        /* \"#utility.yul\":5965:5968   */\n      dup3\n        /* \"#utility.yul\":5961:5973   */\n      add\n        /* \"#utility.yul\":5954:5973   */\n      swap1\n      pop\n        /* \"#utility.yul\":5613:5979   */\n      swap2\n      swap1\n      pop\n      jump\t// out\n        /* \"#utility.yul\":5985:6404   */\n    tag_44:\n        /* \"#utility.yul\":6151:6155   */\n      0x00\n        /* \"#utility.yul\":6189:6191   */\n      0x20\n        /* \"#utility.yul\":6178:6187   */\n      dup3\n        /* \"#utility.yul\":6174:6192   */\n      add\n        /* \"#utility.yul\":6166:6192   */\n      swap1\n      pop\n        /* \"#utility.yul\":6238:6247   */\n      dup2\n        /* \"#utility.yul\":6232:6236   */\n      dup2\n        /* \"#utility.yul\":6228:6248   */\n      sub\n        /* \"#utility.yul\":6224:6225   */\n      0x00\n        /* \"#utility.yul\":6213:6222   */\n      dup4\n        /* \"#utility.yul\":6209:6226   */\n      add\n        /* \"#utility.yul\":6202:6249   */\n      mstore\n        /* \"#utility.yul\":6266:6397   */\n      tag_169\n        /* \"#utility.yul\":6392:6396   */\n      dup2\n        /* \"#utility.yul\":6266:6397   */\n      tag_101\n      jump\t// in\n    tag_169:\n        /* \"#utility.yul\":6258:6397   */\n      swap1\n      pop\n        /* \"#utility.yul\":5985:6404   */\n      swap2\n      swap1\n      pop\n      jump\t// out\n        /* \"#utility.yul\":6410:6580   */\n    tag_102:\n        /* \"#utility.yul\":6550:6572   */\n      0x496e73756666696369656e742062616c616e6365000000000000000000000000\n        /* \"#utility.yul\":6546:6547   */\n      0x00\n        /* \"#utility.yul\":6538:6544   */\n      dup3\n        /* \"#utility.yul\":6534:6548   */\n      add\n        /* \"#utility.yul\":6527:6573   */\n      mstore\n        /* \"#utility.yul\":6410:6580   */\n      pop\n      jump\t// out\n        /* \"#utility.yul\":6586:6952   */\n    tag_103:\n        /* \"#utility.yul\":6728:6731   */\n      0x00\n        /* \"#utility.yul\":6749:6816   */\n      tag_172\n        /* \"#utility.yul\":6813:6815   */\n      0x14\n        /* \"#utility.yul\":6808:6811   */\n      dup4\n        /* \"#utility.yul\":6749:6816   */\n      tag_99\n      jump\t// in\n    tag_172:\n        /* \"#utility.yul\":6742:6816   */\n      swap2\n      pop\n        /* \"#utility.yul\":6825:6918   */\n      tag_173\n        /* \"#utility.yul\":6914:6917   */\n      dup3\n        /* \"#utility.yul\":6825:6918   */\n      tag_102\n      jump\t// in\n    tag_173:\n        /* \"#utility.yul\":6943:6945   */\n      0x20\n        /* \"#utility.yul\":6938:6941   */\n      dup3\n        /* \"#utility.yul\":6934:6946   */\n      add\n        /* \"#utility.yul\":6927:6946   */\n      swap1\n      pop\n        /* \"#utility.yul\":6586:6952   */\n      swap2\n      swap1\n      pop\n      jump\t// out\n        /* \"#utility.yul\":6958:7377   */\n    tag_48:\n        /* \"#utility.yul\":7124:7128   */\n      0x00\n        /* \"#utility.yul\":7162:7164   */\n      0x20\n        /* \"#utility.yul\":7151:7160   */\n      dup3\n        /* \"#utility.yul\":7147:7165   */\n      add\n        /* \"#utility.yul\":7139:7165   */\n      swap1\n      pop\n        /* \"#utility.yul\":7211:7220   */\n      dup2\n        /* \"#utility.yul\":7205:7209   */\n      dup2\n        /* \"#utility.yul\":7201:7221   */\n      sub\n        /* \"#utility.yul\":7197:7198   */\n      0x00\n        /* \"#utility.yul\":7186:7195   */\n      dup4\n        /* \"#utility.yul\":7182:7199   */\n      add\n        /* \"#utility.yul\":7175:7222   */\n      mstore\n        /* \"#utility.yul\":7239:7370   */\n      tag_175\n        /* \"#utility.yul\":7365:7369   */\n      dup2\n        /* \"#utility.yul\":7239:7370   */\n      tag_103\n      jump\t// in\n    tag_175:\n        /* \"#utility.yul\":7231:7370   */\n      swap1\n      pop\n        /* \"#utility.yul\":6958:7377   */\n      swap2\n      swap1\n      pop\n      jump\t// out\n        /* \"#utility.yul\":7383:7563   */\n    tag_104:\n        /* \"#utility.yul\":7431:7508   */\n      0x4e487b7100000000000000000000000000000000000000000000000000000000\n        /* \"#utility.yul\":7428:7429   */\n      0x00\n        /* \"#utility.yul\":7421:7509   */\n      mstore\n        /* \"#utility.yul\":7528:7532   */\n      0x11\n        /* \"#utility.yul\":7525:7526   */\n      0x04\n        /* \"#utility.yul\":7518:7533   */\n      mstore\n        /* \"#utility.yul\":7552:7556   */\n      0x24\n        /* \"#utility.yul\":7549:7550   */\n      0x00\n        /* \"#utility.yul\":7542:7557   */\n      revert\n        /* \"#utility.yul\":7569:7763   */\n    tag_50:\n        /* \"#utility.yul\":7609:7613   */\n      0x00\n        /* \"#utility.yul\":7629:7649   */\n      tag_178\n        /* \"#utility.yul\":7647:7648   */\n      dup3\n        /* \"#utility.yul\":7629:7649   */\n      tag_84\n      jump\t// in\n    tag_178:\n        /* \"#utility.yul\":7624:7649   */\n      swap2\n      pop\n        /* \"#utility.yul\":7663:7683   */\n      tag_179\n        /* \"#utility.yul\":7681:7682   */\n      dup4\n        /* \"#utility.yul\":7663:7683   */\n      tag_84\n      jump\t// in\n    tag_179:\n        /* \"#utility.yul\":7658:7683   */\n      swap3\n      pop\n        /* \"#utility.yul\":7707:7708   */\n      dup3\n        /* \"#utility.yul\":7704:7705   */\n      dup3\n        /* \"#utility.yul\":7700:7709   */\n      sub\n        /* \"#utility.yul\":7692:7709   */\n      swap1\n      pop\n        /* \"#utility.yul\":7731:7732   */\n      dup2\n        /* \"#utility.yul\":7725:7729   */\n      dup2\n        /* \"#utility.yul\":7722:7733   */\n      gt\n        /* \"#utility.yul\":7719:7756   */\n      iszero\n      tag_180\n      jumpi\n        /* \"#utility.yul\":7736:7754   */\n      tag_181\n      tag_104\n      jump\t// in\n    tag_181:\n        /* \"#utility.yul\":7719:7756   */\n    tag_180:\n        /* \"#utility.yul\":7569:7763   */\n      swap3\n      swap2\n      pop\n      pop\n      jump\t// out\n        /* \"#utility.yul\":7769:7942   */\n    tag_105:\n        /* \"#utility.yul\":7909:7934   */\n      0x436f6e747261637420646f6573206e6f74206578697374000000000000000000\n        /* \"#utility.yul\":7905:7906   */\n      0x00\n        /* \"#utility.yul\":7897:7903   */\n      dup3\n        /* \"#utility.yul\":7893:7907   */\n      add\n        /* \"#utility.yul\":7886:7935   */\n      mstore\n        /* \"#utility.yul\":7769:7942   */\n      pop\n      jump\t// out\n        /* \"#utility.yul\":7948:8314   */\n    tag_106:\n        /* \"#utility.yul\":8090:8093   */\n      0x00\n        /* \"#utility.yul\":8111:8178   */\n      tag_184\n        /* \"#utility.yul\":8175:8177   */\n      0x17\n        /* \"#utility.yul\":8170:8173   */\n      dup4\n        /* \"#utility.yul\":8111:8178   */\n      tag_99\n      jump\t// in\n    tag_184:\n        /* \"#utility.yul\":8104:8178   */\n      swap2\n      pop\n        /* \"#utility.yul\":8187:8280   */\n      tag_185\n        /* \"#utility.yul\":8276:8279   */\n      dup3\n        /* \"#utility.yul\":8187:8280   */\n      tag_105\n      jump\t// in\n    tag_185:\n        /* \"#utility.yul\":8305:8307   */\n      0x20\n        /* \"#utility.yul\":8300:8303   */\n      dup3\n        /* \"#utility.yul\":8296:8308   */\n      add\n        /* \"#utility.yul\":8289:8308   */\n      swap1\n      pop\n        /* \"#utility.yul\":7948:8314   */\n      swap2\n      swap1\n      pop\n      jump\t// out\n        /* \"#utility.yul\":8320:8739   */\n    tag_59:\n        /* \"#utility.yul\":8486:8490   */\n      0x00\n        /* \"#utility.yul\":8524:8526   */\n      0x20\n        /* \"#utility.yul\":8513:8522   */\n      dup3\n        /* \"#utility.yul\":8509:8527   */\n      add\n        /* \"#utility.yul\":8501:8527   */\n      swap1\n      pop\n        /* \"#utility.yul\":8573:8582   */\n      dup2\n        /* \"#utility.yul\":8567:8571   */\n      dup2\n        /* \"#utility.yul\":8563:8583   */\n      sub\n        /* \"#utility.yul\":8559:8560   */\n      0x00\n        /* \"#utility.yul\":8548:8557   */\n      dup4\n        /* \"#utility.yul\":8544:8561   */\n      add\n        /* \"#utility.yul\":8537:8584   */\n      mstore\n        /* \"#utility.yul\":8601:8732   */\n      tag_187\n        /* \"#utility.yul\":8727:8731   */\n      dup2\n        /* \"#utility.yul\":8601:8732   */\n      tag_106\n      jump\t// in\n    tag_187:\n        /* \"#utility.yul\":8593:8732   */\n      swap1\n      pop\n        /* \"#utility.yul\":8320:8739   */\n      swap2\n      swap1\n      pop\n      jump\t// out\n        /* \"#utility.yul\":8745:8925   */\n    tag_62:\n        /* \"#utility.yul\":8793:8870   */\n      0x4e487b7100000000000000000000000000000000000000000000000000000000\n        /* \"#utility.yul\":8790:8791   */\n      0x00\n        /* \"#utility.yul\":8783:8871   */\n      mstore\n        /* \"#utility.yul\":8890:8894   */\n      0x32\n        /* \"#utility.yul\":8887:8888   */\n      0x04\n        /* \"#utility.yul\":8880:8895   */\n      mstore\n        /* \"#utility.yul\":8914:8918   */\n      0x24\n        /* \"#utility.yul\":8911:8912   */\n      0x00\n        /* \"#utility.yul\":8904:8919   */\n      revert\n        /* \"#utility.yul\":8931:9111   */\n    tag_107:\n        /* \"#utility.yul\":9071:9103   */\n      0x456e642074696d65206d75737420626520696e20746865206675747572650000\n        /* \"#utility.yul\":9067:9068   */\n      0x00\n        /* \"#utility.yul\":9059:9065   */\n      dup3\n        /* \"#utility.yul\":9055:9069   */\n      add\n        /* \"#utility.yul\":9048:9104   */\n      mstore\n        /* \"#utility.yul\":8931:9111   */\n      pop\n      jump\t// out\n        /* \"#utility.yul\":9117:9483   */\n    tag_108:\n        /* \"#utility.yul\":9259:9262   */\n      0x00\n        /* \"#utility.yul\":9280:9347   */\n      tag_191\n        /* \"#utility.yul\":9344:9346   */\n      0x1e\n        /* \"#utility.yul\":9339:9342   */\n      dup4\n        /* \"#utility.yul\":9280:9347   */\n      tag_99\n      jump\t// in\n    tag_191:\n        /* \"#utility.yul\":9273:9347   */\n      swap2\n      pop\n        /* \"#utility.yul\":9356:9449   */\n      tag_192\n        /* \"#utility.yul\":9445:9448   */\n      dup3\n        /* \"#utility.yul\":9356:9449   */\n      tag_107\n      jump\t// in\n    tag_192:\n        /* \"#utility.yul\":9474:9476   */\n      0x20\n        /* \"#utility.yul\":9469:9472   */\n      dup3\n        /* \"#utility.yul\":9465:9477   */\n      add\n        /* \"#utility.yul\":9458:9477   */\n      swap1\n      pop\n        /* \"#utility.yul\":9117:9483   */\n      swap2\n      swap1\n      pop\n      jump\t// out\n        /* \"#utility.yul\":9489:9908   */\n    tag_72:\n        /* \"#utility.yul\":9655:9659   */\n      0x00\n        /* \"#utility.yul\":9693:9695   */\n      0x20\n        /* \"#utility.yul\":9682:9691   */\n      dup3\n        /* \"#utility.yul\":9678:9696   */\n      add\n        /* \"#utility.yul\":9670:9696   */\n      swap1\n      pop\n        /* \"#utility.yul\":9742:9751   */\n      dup2\n        /* \"#utility.yul\":9736:9740   */\n      dup2\n        /* \"#utility.yul\":9732:9752   */\n      sub\n        /* \"#utility.yul\":9728:9729   */\n      0x00\n        /* \"#utility.yul\":9717:9726   */\n      dup4\n        /* \"#utility.yul\":9713:9730   */\n      add\n        /* \"#utility.yul\":9706:9753   */\n      mstore\n        /* \"#utility.yul\":9770:9901   */\n      tag_194\n        /* \"#utility.yul\":9896:9900   */\n      dup2\n        /* \"#utility.yul\":9770:9901   */\n      tag_108\n      jump\t// in\n    tag_194:\n        /* \"#utility.yul\":9762:9901   */\n      swap1\n      pop\n        /* \"#utility.yul\":9489:9908   */\n      swap2\n      swap1\n      pop\n      jump\t// out\n        /* \"#utility.yul\":9914:10356   */\n    tag_76:\n        /* \"#utility.yul\":10063:10067   */\n      0x00\n        /* \"#utility.yul\":10101:10103   */\n      0x60\n        /* \"#utility.yul\":10090:10099   */\n      dup3\n        /* \"#utility.yul\":10086:10104   */\n      add\n        /* \"#utility.yul\":10078:10104   */\n      swap1\n      pop\n        /* \"#utility.yul\":10114:10185   */\n      tag_196\n        /* \"#utility.yul\":10182:10183   */\n      0x00\n        /* \"#utility.yul\":10171:10180   */\n      dup4\n        /* \"#utility.yul\":10167:10184   */\n      add\n        /* \"#utility.yul\":10158:10164   */\n      dup7\n        /* \"#utility.yul\":10114:10185   */\n      tag_85\n      jump\t// in\n    tag_196:\n        /* \"#utility.yul\":10195:10267   */\n      tag_197\n        /* \"#utility.yul\":10263:10265   */\n      0x20\n        /* \"#utility.yul\":10252:10261   */\n      dup4\n        /* \"#utility.yul\":10248:10266   */\n      add\n        /* \"#utility.yul\":10239:10245   */\n      dup6\n        /* \"#utility.yul\":10195:10267   */\n      tag_85\n      jump\t// in\n    tag_197:\n        /* \"#utility.yul\":10277:10349   */\n      tag_198\n        /* \"#utility.yul\":10345:10347   */\n      0x40\n        /* \"#utility.yul\":10334:10343   */\n      dup4\n        /* \"#utility.yul\":10330:10348   */\n      add\n        /* \"#utility.yul\":10321:10327   */\n      dup5\n        /* \"#utility.yul\":10277:10349   */\n      tag_85\n      jump\t// in\n    tag_198:\n        /* \"#utility.yul\":9914:10356   */\n      swap5\n      swap4\n      pop\n      pop\n      pop\n      pop\n      jump\t// out\n        /* \"#utility.yul\":10362:10553   */\n    tag_82:\n        /* \"#utility.yul\":10402:10405   */\n      0x00\n        /* \"#utility.yul\":10421:10441   */\n      tag_200\n        /* \"#utility.yul\":10439:10440   */\n      dup3\n        /* \"#utility.yul\":10421:10441   */\n      tag_84\n      jump\t// in\n    tag_200:\n        /* \"#utility.yul\":10416:10441   */\n      swap2\n      pop\n        /* \"#utility.yul\":10455:10475   */\n      tag_201\n        /* \"#utility.yul\":10473:10474   */\n      dup4\n        /* \"#utility.yul\":10455:10475   */\n      tag_84\n      jump\t// in\n    tag_201:\n        /* \"#utility.yul\":10450:10475   */\n      swap3\n      pop\n        /* \"#utility.yul\":10498:10499   */\n      dup3\n        /* \"#utility.yul\":10495:10496   */\n      dup3\n        /* \"#utility.yul\":10491:10500   */\n      add\n        /* \"#utility.yul\":10484:10500   */\n      swap1\n      pop\n        /* \"#utility.yul\":10519:10522   */\n      dup1\n        /* \"#utility.yul\":10516:10517   */\n      dup3\n        /* \"#utility.yul\":10513:10523   */\n      gt\n        /* \"#utility.yul\":10510:10546   */\n      iszero\n      tag_202\n      jumpi\n        /* \"#utility.yul\":10526:10544   */\n      tag_203\n      tag_104\n      jump\t// in\n    tag_203:\n        /* \"#utility.yul\":10510:10546   */\n    tag_202:\n        /* \"#utility.yul\":10362:10553   */\n      swap3\n      swap2\n      pop\n      pop\n      jump\t// out\n\n    auxdata: 0xa26469706673582212203ac9ca40addc7113e20fd1ded7d97ff839b6c003dd0f06adb3a783d11120407b64736f6c634300081a0033\n}\n",
				"bytecode": {
					"linkReferences": {},
					"object": "6080604052348015600e575f80fd5b50335f806101000a81548173ffffffffffffffffffffffffffffffffffffffff021916908373ffffffffffffffffffffffffffffffffffffffff1602179055505f600181905550610cf0806100625f395ff3fe608060405234801561000f575f80fd5b506004361061007b575f3560e01c80636ebc8c86116100595780636ebc8c86146100ed5780638da5cb5b1461011d578063b0d10c391461013b578063b6b55f25146101575761007b565b806312065fe01461007f5780632e1a7d4d1461009d578063474da79a146100b9575b5f80fd5b610087610173565b60405161009491906107bd565b60405180910390f35b6100b760048036038101906100b29190610804565b61017c565b005b6100d360048036038101906100ce9190610804565b6102a0565b6040516100e495949392919061086e565b60405180910390f35b61010760048036038101906101029190610804565b610300565b6040516101149190610943565b60405180910390f35b6101256103fd565b604051610132919061095c565b60405180910390f35b6101556004803603810190610150919061099f565b610420565b005b610171600480360381019061016c9190610804565b610686565b005b5f600154905090565b5f8054906101000a900473ffffffffffffffffffffffffffffffffffffffff1673ffffffffffffffffffffffffffffffffffffffff163373ffffffffffffffffffffffffffffffffffffffff1614610209576040517f08c379a000000000000000000000000000000000000000000000000000000000815260040161020090610a6f565b60405180910390fd5b60015481111561024e576040517f08c379a000000000000000000000000000000000000000000000000000000000815260040161024590610ad7565b60405180910390fd5b8060015f82825461025f9190610b22565b925050819055507f4e70a604b23a8edee2b1d0a656e9b9c00b73ad8bb1afc2c59381ee9f69197de78160405161029591906107bd565b60405180910390a150565b600281815481106102af575f80fd5b905f5260205f2090600502015f91509050805f015490806001015f9054906101000a900473ffffffffffffffffffffffffffffffffffffffff16908060020154908060030154908060040154905085565b610308610765565b600280549050821061034f576040517f08c379a000000000000000000000000000000000000000000000000000000000815260040161034690610b9f565b60405180910390fd5b6002828154811061036357610362610bbd565b5b905f5260205f2090600502016040518060a00160405290815f8201548152602001600182015f9054906101000a900473ffffffffffffffffffffffffffffffffffffffff1673ffffffffffffffffffffffffffffffffffffffff1673ffffffffffffffffffffffffffffffffffffffff16815260200160028201548152602001600382015481526020016004820154815250509050919050565b5f8054906101000a900473ffffffffffffffffffffffffffffffffffffffff1681565b5f8054906101000a900473ffffffffffffffffffffffffffffffffffffffff1673ffffffffffffffffffffffffffffffffffffffff163373ffffffffffffffffffffffffffffffffffffffff16146104ad576040517f08c379a00000000000000000000000000000000000000000000000000000000081526004016104a490610a6f565b60405180910390fd5b6001548211156104f2576040517f08c379a00000000000000000000000000000000000000000000000000000000081526004016104e990610ad7565b60405180910390fd5b428111610534576040517f08c379a000000000000000000000000000000000000000000000000000000000815260040161052b90610c34565b60405180910390fd5b5f60028054905090505f6040518060a001604052808381526020018673ffffffffffffffffffffffffffffffffffffffff168152602001858152602001428152602001848152509050600281908060018154018082558091505060019003905f5260205f2090600502015f909190919091505f820151815f01556020820151816001015f6101000a81548173ffffffffffffffffffffffffffffffffffffffff021916908373ffffffffffffffffffffffffffffffffffffffff16021790555060408201518160020155606082015181600301556080820151816004015550508360015f8282546106259190610b22565b925050819055508473ffffffffffffffffffffffffffffffffffffffff16827f807b3969748ed08fd5b6e42c43949c80133560c807529c456c531f6fb0c5570986428760405161067793929190610c52565b60405180910390a35050505050565b5f8054906101000a900473ffffffffffffffffffffffffffffffffffffffff1673ffffffffffffffffffffffffffffffffffffffff163373ffffffffffffffffffffffffffffffffffffffff1614610713576040517f08c379a000000000000000000000000000000000000000000000000000000000815260040161070a90610a6f565b60405180910390fd5b8060015f8282546107249190610c87565b925050819055507f4d6ce1e535dbade1c23defba91e23b8f791ce5edc0cc320257a2b364e4e384268160405161075a91906107bd565b60405180910390a150565b6040518060a001604052805f81526020015f73ffffffffffffffffffffffffffffffffffffffff1681526020015f81526020015f81526020015f81525090565b5f819050919050565b6107b7816107a5565b82525050565b5f6020820190506107d05f8301846107ae565b92915050565b5f80fd5b6107e3816107a5565b81146107ed575f80fd5b50565b5f813590506107fe816107da565b92915050565b5f60208284031215610819576108186107d6565b5b5f610826848285016107f0565b91505092915050565b5f73ffffffffffffffffffffffffffffffffffffffff82169050919050565b5f6108588261082f565b9050919050565b6108688161084e565b82525050565b5f60a0820190506108815f8301886107ae565b61088e602083018761085f565b61089b60408301866107ae565b6108a860608301856107ae565b6108b560808301846107ae565b9695505050505050565b6108c8816107a5565b82525050565b6108d78161084e565b82525050565b60a082015f8201516108f15f8501826108bf565b50602082015161090460208501826108ce565b50604082015161091760408501826108bf565b50606082015161092a60608501826108bf565b50608082015161093d60808501826108bf565b50505050565b5f60a0820190506109565f8301846108dd565b92915050565b5f60208201905061096f5f83018461085f565b92915050565b61097e8161084e565b8114610988575f80fd5b50565b5f8135905061099981610975565b92915050565b5f805f606084860312156109b6576109b56107d6565b5b5f6109c38682870161098b565b93505060206109d4868287016107f0565b92505060406109e5868287016107f0565b9150509250925092565b5f82825260208201905092915050565b7f4f6e6c7920746865206f776e65722063616e20706572666f726d2074686973205f8201527f616374696f6e0000000000000000000000000000000000000000000000000000602082015250565b5f610a596026836109ef565b9150610a64826109ff565b604082019050919050565b5f6020820190508181035f830152610a8681610a4d565b9050919050565b7f496e73756666696369656e742062616c616e63650000000000000000000000005f82015250565b5f610ac16014836109ef565b9150610acc82610a8d565b602082019050919050565b5f6020820190508181035f830152610aee81610ab5565b9050919050565b7f4e487b71000000000000000000000000000000000000000000000000000000005f52601160045260245ffd5b5f610b2c826107a5565b9150610b37836107a5565b9250828203905081811115610b4f57610b4e610af5565b5b92915050565b7f436f6e747261637420646f6573206e6f742065786973740000000000000000005f82015250565b5f610b896017836109ef565b9150610b9482610b55565b602082019050919050565b5f6020820190508181035f830152610bb681610b7d565b9050919050565b7f4e487b71000000000000000000000000000000000000000000000000000000005f52603260045260245ffd5b7f456e642074696d65206d75737420626520696e207468652066757475726500005f82015250565b5f610c1e601e836109ef565b9150610c2982610bea565b602082019050919050565b5f6020820190508181035f830152610c4b81610c12565b9050919050565b5f606082019050610c655f8301866107ae565b610c7260208301856107ae565b610c7f60408301846107ae565b949350505050565b5f610c91826107a5565b9150610c9c836107a5565b9250828201905080821115610cb457610cb3610af5565b5b9291505056fea26469706673582212203ac9ca40addc7113e20fd1ded7d97ff839b6c003dd0f06adb3a783d11120407b64736f6c634300081a0033",
					"opcodes": "PUSH1 0x80 PUSH1 0x40 MSTORE CALLVALUE DUP1 ISZERO PUSH1 0xE JUMPI PUSH0 DUP1 REVERT JUMPDEST POP CALLER PUSH0 DUP1 PUSH2 0x100 EXP DUP2 SLOAD DUP2 PUSH20 0xFFFFFFFFFFFFFFFFFFFFFFFFFFFFFFFFFFFFFFFF MUL NOT AND SWAP1 DUP4 PUSH20 0xFFFFFFFFFFFFFFFFFFFFFFFFFFFFFFFFFFFFFFFF AND MUL OR SWAP1 SSTORE POP PUSH0 PUSH1 0x1 DUP2 SWAP1 SSTORE POP PUSH2 0xCF0 DUP1 PUSH2 0x62 PUSH0 CODECOPY PUSH0 RETURN INVALID PUSH1 0x80 PUSH1 0x40 MSTORE CALLVALUE DUP1 ISZERO PUSH2 0xF JUMPI PUSH0 DUP1 REVERT JUMPDEST POP PUSH1 0x4 CALLDATASIZE LT PUSH2 0x7B JUMPI PUSH0 CALLDATALOAD PUSH1 0xE0 SHR DUP1 PUSH4 0x6EBC8C86 GT PUSH2 0x59 JUMPI DUP1 PUSH4 0x6EBC8C86 EQ PUSH2 0xED JUMPI DUP1 PUSH4 0x8DA5CB5B EQ PUSH2 0x11D JUMPI DUP1 PUSH4 0xB0D10C39 EQ PUSH2 0x13B JUMPI DUP1 PUSH4 0xB6B55F25 EQ PUSH2 0x157 JUMPI PUSH2 0x7B JUMP JUMPDEST DUP1 PUSH4 0x12065FE0 EQ PUSH2 0x7F JUMPI DUP1 PUSH4 0x2E1A7D4D EQ PUSH2 0x9D JUMPI DUP1 PUSH4 0x474DA79A EQ PUSH2 0xB9 JUMPI JUMPDEST PUSH0 DUP1 REVERT JUMPDEST PUSH2 0x87 PUSH2 0x173 JUMP JUMPDEST PUSH1 0x40 MLOAD PUSH2 0x94 SWAP2 SWAP1 PUSH2 0x7BD JUMP JUMPDEST PUSH1 0x40 MLOAD DUP1 SWAP2 SUB SWAP1 RETURN JUMPDEST PUSH2 0xB7 PUSH1 0x4 DUP1 CALLDATASIZE SUB DUP2 ADD SWAP1 PUSH2 0xB2 SWAP2 SWAP1 PUSH2 0x804 JUMP JUMPDEST PUSH2 0x17C JUMP JUMPDEST STOP JUMPDEST PUSH2 0xD3 PUSH1 0x4 DUP1 CALLDATASIZE SUB DUP2 ADD SWAP1 PUSH2 0xCE SWAP2 SWAP1 PUSH2 0x804 JUMP JUMPDEST PUSH2 0x2A0 JUMP JUMPDEST PUSH1 0x40 MLOAD PUSH2 0xE4 SWAP6 SWAP5 SWAP4 SWAP3 SWAP2 SWAP1 PUSH2 0x86E JUMP JUMPDEST PUSH1 0x40 MLOAD DUP1 SWAP2 SUB SWAP1 RETURN JUMPDEST PUSH2 0x107 PUSH1 0x4 DUP1 CALLDATASIZE SUB DUP2 ADD SWAP1 PUSH2 0x102 SWAP2 SWAP1 PUSH2 0x804 JUMP JUMPDEST PUSH2 0x300 JUMP JUMPDEST PUSH1 0x40 MLOAD PUSH2 0x114 SWAP2 SWAP1 PUSH2 0x943 JUMP JUMPDEST PUSH1 0x40 MLOAD DUP1 SWAP2 SUB SWAP1 RETURN JUMPDEST PUSH2 0x125 PUSH2 0x3FD JUMP JUMPDEST PUSH1 0x40 MLOAD PUSH2 0x132 SWAP2 SWAP1 PUSH2 0x95C JUMP JUMPDEST PUSH1 0x40 MLOAD DUP1 SWAP2 SUB SWAP1 RETURN JUMPDEST PUSH2 0x155 PUSH1 0x4 DUP1 CALLDATASIZE SUB DUP2 ADD SWAP1 PUSH2 0x150 SWAP2 SWAP1 PUSH2 0x99F JUMP JUMPDEST PUSH2 0x420 JUMP JUMPDEST STOP JUMPDEST PUSH2 0x171 PUSH1 0x4 DUP1 CALLDATASIZE SUB DUP2 ADD SWAP1 PUSH2 0x16C SWAP2 SWAP1 PUSH2 0x804 JUMP JUMPDEST PUSH2 0x686 JUMP JUMPDEST STOP JUMPDEST PUSH0 PUSH1 0x1 SLOAD SWAP1 POP SWAP1 JUMP JUMPDEST PUSH0 DUP1 SLOAD SWAP1 PUSH2 0x100 EXP SWAP1 DIV PUSH20 0xFFFFFFFFFFFFFFFFFFFFFFFFFFFFFFFFFFFFFFFF AND PUSH20 0xFFFFFFFFFFFFFFFFFFFFFFFFFFFFFFFFFFFFFFFF AND CALLER PUSH20 0xFFFFFFFFFFFFFFFFFFFFFFFFFFFFFFFFFFFFFFFF AND EQ PUSH2 0x209 JUMPI PUSH1 0x40 MLOAD PUSH32 0x8C379A000000000000000000000000000000000000000000000000000000000 DUP2 MSTORE PUSH1 0x4 ADD PUSH2 0x200 SWAP1 PUSH2 0xA6F JUMP JUMPDEST PUSH1 0x40 MLOAD DUP1 SWAP2 SUB SWAP1 REVERT JUMPDEST PUSH1 0x1 SLOAD DUP2 GT ISZERO PUSH2 0x24E JUMPI PUSH1 0x40 MLOAD PUSH32 0x8C379A000000000000000000000000000000000000000000000000000000000 DUP2 MSTORE PUSH1 0x4 ADD PUSH2 0x245 SWAP1 PUSH2 0xAD7 JUMP JUMPDEST PUSH1 0x40 MLOAD DUP1 SWAP2 SUB SWAP1 REVERT JUMPDEST DUP1 PUSH1 0x1 PUSH0 DUP3 DUP3 SLOAD PUSH2 0x25F SWAP2 SWAP1 PUSH2 0xB22 JUMP JUMPDEST SWAP3 POP POP DUP2 SWAP1 SSTORE POP PUSH32 0x4E70A604B23A8EDEE2B1D0A656E9B9C00B73AD8BB1AFC2C59381EE9F69197DE7 DUP2 PUSH1 0x40 MLOAD PUSH2 0x295 SWAP2 SWAP1 PUSH2 0x7BD JUMP JUMPDEST PUSH1 0x40 MLOAD DUP1 SWAP2 SUB SWAP1 LOG1 POP JUMP JUMPDEST PUSH1 0x2 DUP2 DUP2 SLOAD DUP2 LT PUSH2 0x2AF JUMPI PUSH0 DUP1 REVERT JUMPDEST SWAP1 PUSH0 MSTORE PUSH1 0x20 PUSH0 KECCAK256 SWAP1 PUSH1 0x5 MUL ADD PUSH0 SWAP2 POP SWAP1 POP DUP1 PUSH0 ADD SLOAD SWAP1 DUP1 PUSH1 0x1 ADD PUSH0 SWAP1 SLOAD SWAP1 PUSH2 0x100 EXP SWAP1 DIV PUSH20 0xFFFFFFFFFFFFFFFFFFFFFFFFFFFFFFFFFFFFFFFF AND SWAP1 DUP1 PUSH1 0x2 ADD SLOAD SWAP1 DUP1 PUSH1 0x3 ADD SLOAD SWAP1 DUP1 PUSH1 0x4 ADD SLOAD SWAP1 POP DUP6 JUMP JUMPDEST PUSH2 0x308 PUSH2 0x765 JUMP JUMPDEST PUSH1 0x2 DUP1 SLOAD SWAP1 POP DUP3 LT PUSH2 0x34F JUMPI PUSH1 0x40 MLOAD PUSH32 0x8C379A000000000000000000000000000000000000000000000000000000000 DUP2 MSTORE PUSH1 0x4 ADD PUSH2 0x346 SWAP1 PUSH2 0xB9F JUMP JUMPDEST PUSH1 0x40 MLOAD DUP1 SWAP2 SUB SWAP1 REVERT JUMPDEST PUSH1 0x2 DUP3 DUP2 SLOAD DUP2 LT PUSH2 0x363 JUMPI PUSH2 0x362 PUSH2 0xBBD JUMP JUMPDEST JUMPDEST SWAP1 PUSH0 MSTORE PUSH1 0x20 PUSH0 KECCAK256 SWAP1 PUSH1 0x5 MUL ADD PUSH1 0x40 MLOAD DUP1 PUSH1 0xA0 ADD PUSH1 0x40 MSTORE SWAP1 DUP2 PUSH0 DUP3 ADD SLOAD DUP2 MSTORE PUSH1 0x20 ADD PUSH1 0x1 DUP3 ADD PUSH0 SWAP1 SLOAD SWAP1 PUSH2 0x100 EXP SWAP1 DIV PUSH20 0xFFFFFFFFFFFFFFFFFFFFFFFFFFFFFFFFFFFFFFFF AND PUSH20 0xFFFFFFFFFFFFFFFFFFFFFFFFFFFFFFFFFFFFFFFF AND PUSH20 0xFFFFFFFFFFFFFFFFFFFFFFFFFFFFFFFFFFFFFFFF AND DUP2 MSTORE PUSH1 0x20 ADD PUSH1 0x2 DUP3 ADD SLOAD DUP2 MSTORE PUSH1 0x20 ADD PUSH1 0x3 DUP3 ADD SLOAD DUP2 MSTORE PUSH1 0x20 ADD PUSH1 0x4 DUP3 ADD SLOAD DUP2 MSTORE POP POP SWAP1 POP SWAP2 SWAP1 POP JUMP JUMPDEST PUSH0 DUP1 SLOAD SWAP1 PUSH2 0x100 EXP SWAP1 DIV PUSH20 0xFFFFFFFFFFFFFFFFFFFFFFFFFFFFFFFFFFFFFFFF AND DUP2 JUMP JUMPDEST PUSH0 DUP1 SLOAD SWAP1 PUSH2 0x100 EXP SWAP1 DIV PUSH20 0xFFFFFFFFFFFFFFFFFFFFFFFFFFFFFFFFFFFFFFFF AND PUSH20 0xFFFFFFFFFFFFFFFFFFFFFFFFFFFFFFFFFFFFFFFF AND CALLER PUSH20 0xFFFFFFFFFFFFFFFFFFFFFFFFFFFFFFFFFFFFFFFF AND EQ PUSH2 0x4AD JUMPI PUSH1 0x40 MLOAD PUSH32 0x8C379A000000000000000000000000000000000000000000000000000000000 DUP2 MSTORE PUSH1 0x4 ADD PUSH2 0x4A4 SWAP1 PUSH2 0xA6F JUMP JUMPDEST PUSH1 0x40 MLOAD DUP1 SWAP2 SUB SWAP1 REVERT JUMPDEST PUSH1 0x1 SLOAD DUP3 GT ISZERO PUSH2 0x4F2 JUMPI PUSH1 0x40 MLOAD PUSH32 0x8C379A000000000000000000000000000000000000000000000000000000000 DUP2 MSTORE PUSH1 0x4 ADD PUSH2 0x4E9 SWAP1 PUSH2 0xAD7 JUMP JUMPDEST PUSH1 0x40 MLOAD DUP1 SWAP2 SUB SWAP1 REVERT JUMPDEST TIMESTAMP DUP2 GT PUSH2 0x534 JUMPI PUSH1 0x40 MLOAD PUSH32 0x8C379A000000000000000000000000000000000000000000000000000000000 DUP2 MSTORE PUSH1 0x4 ADD PUSH2 0x52B SWAP1 PUSH2 0xC34 JUMP JUMPDEST PUSH1 0x40 MLOAD DUP1 SWAP2 SUB SWAP1 REVERT JUMPDEST PUSH0 PUSH1 0x2 DUP1 SLOAD SWAP1 POP SWAP1 POP PUSH0 PUSH1 0x40 MLOAD DUP1 PUSH1 0xA0 ADD PUSH1 0x40 MSTORE DUP1 DUP4 DUP2 MSTORE PUSH1 0x20 ADD DUP7 PUSH20 0xFFFFFFFFFFFFFFFFFFFFFFFFFFFFFFFFFFFFFFFF AND DUP2 MSTORE PUSH1 0x20 ADD DUP6 DUP2 MSTORE PUSH1 0x20 ADD TIMESTAMP DUP2 MSTORE PUSH1 0x20 ADD DUP5 DUP2 MSTORE POP SWAP1 POP PUSH1 0x2 DUP2 SWAP1 DUP1 PUSH1 0x1 DUP2 SLOAD ADD DUP1 DUP3 SSTORE DUP1 SWAP2 POP POP PUSH1 0x1 SWAP1 SUB SWAP1 PUSH0 MSTORE PUSH1 0x20 PUSH0 KECCAK256 SWAP1 PUSH1 0x5 MUL ADD PUSH0 SWAP1 SWAP2 SWAP1 SWAP2 SWAP1 SWAP2 POP PUSH0 DUP3 ADD MLOAD DUP2 PUSH0 ADD SSTORE PUSH1 0x20 DUP3 ADD MLOAD DUP2 PUSH1 0x1 ADD PUSH0 PUSH2 0x100 EXP DUP2 SLOAD DUP2 PUSH20 0xFFFFFFFFFFFFFFFFFFFFFFFFFFFFFFFFFFFFFFFF MUL NOT AND SWAP1 DUP4 PUSH20 0xFFFFFFFFFFFFFFFFFFFFFFFFFFFFFFFFFFFFFFFF AND MUL OR SWAP1 SSTORE POP PUSH1 0x40 DUP3 ADD MLOAD DUP2 PUSH1 0x2 ADD SSTORE PUSH1 0x60 DUP3 ADD MLOAD DUP2 PUSH1 0x3 ADD SSTORE PUSH1 0x80 DUP3 ADD MLOAD DUP2 PUSH1 0x4 ADD SSTORE POP POP DUP4 PUSH1 0x1 PUSH0 DUP3 DUP3 SLOAD PUSH2 0x625 SWAP2 SWAP1 PUSH2 0xB22 JUMP JUMPDEST SWAP3 POP POP DUP2 SWAP1 SSTORE POP DUP5 PUSH20 0xFFFFFFFFFFFFFFFFFFFFFFFFFFFFFFFFFFFFFFFF AND DUP3 PUSH32 0x807B3969748ED08FD5B6E42C43949C80133560C807529C456C531F6FB0C55709 DUP7 TIMESTAMP DUP8 PUSH1 0x40 MLOAD PUSH2 0x677 SWAP4 SWAP3 SWAP2 SWAP1 PUSH2 0xC52 JUMP JUMPDEST PUSH1 0x40 MLOAD DUP1 SWAP2 SUB SWAP1 LOG3 POP POP POP POP POP JUMP JUMPDEST PUSH0 DUP1 SLOAD SWAP1 PUSH2 0x100 EXP SWAP1 DIV PUSH20 0xFFFFFFFFFFFFFFFFFFFFFFFFFFFFFFFFFFFFFFFF AND PUSH20 0xFFFFFFFFFFFFFFFFFFFFFFFFFFFFFFFFFFFFFFFF AND CALLER PUSH20 0xFFFFFFFFFFFFFFFFFFFFFFFFFFFFFFFFFFFFFFFF AND EQ PUSH2 0x713 JUMPI PUSH1 0x40 MLOAD PUSH32 0x8C379A000000000000000000000000000000000000000000000000000000000 DUP2 MSTORE PUSH1 0x4 ADD PUSH2 0x70A SWAP1 PUSH2 0xA6F JUMP JUMPDEST PUSH1 0x40 MLOAD DUP1 SWAP2 SUB SWAP1 REVERT JUMPDEST DUP1 PUSH1 0x1 PUSH0 DUP3 DUP3 SLOAD PUSH2 0x724 SWAP2 SWAP1 PUSH2 0xC87 JUMP JUMPDEST SWAP3 POP POP DUP2 SWAP1 SSTORE POP PUSH32 0x4D6CE1E535DBADE1C23DEFBA91E23B8F791CE5EDC0CC320257A2B364E4E38426 DUP2 PUSH1 0x40 MLOAD PUSH2 0x75A SWAP2 SWAP1 PUSH2 0x7BD JUMP JUMPDEST PUSH1 0x40 MLOAD DUP1 SWAP2 SUB SWAP1 LOG1 POP JUMP JUMPDEST PUSH1 0x40 MLOAD DUP1 PUSH1 0xA0 ADD PUSH1 0x40 MSTORE DUP1 PUSH0 DUP2 MSTORE PUSH1 0x20 ADD PUSH0 PUSH20 0xFFFFFFFFFFFFFFFFFFFFFFFFFFFFFFFFFFFFFFFF AND DUP2 MSTORE PUSH1 0x20 ADD PUSH0 DUP2 MSTORE PUSH1 0x20 ADD PUSH0 DUP2 MSTORE PUSH1 0x20 ADD PUSH0 DUP2 MSTORE POP SWAP1 JUMP JUMPDEST PUSH0 DUP2 SWAP1 POP SWAP2 SWAP1 POP JUMP JUMPDEST PUSH2 0x7B7 DUP2 PUSH2 0x7A5 JUMP JUMPDEST DUP3 MSTORE POP POP JUMP JUMPDEST PUSH0 PUSH1 0x20 DUP3 ADD SWAP1 POP PUSH2 0x7D0 PUSH0 DUP4 ADD DUP5 PUSH2 0x7AE JUMP JUMPDEST SWAP3 SWAP2 POP POP JUMP JUMPDEST PUSH0 DUP1 REVERT JUMPDEST PUSH2 0x7E3 DUP2 PUSH2 0x7A5 JUMP JUMPDEST DUP2 EQ PUSH2 0x7ED JUMPI PUSH0 DUP1 REVERT JUMPDEST POP JUMP JUMPDEST PUSH0 DUP2 CALLDATALOAD SWAP1 POP PUSH2 0x7FE DUP2 PUSH2 0x7DA JUMP JUMPDEST SWAP3 SWAP2 POP POP JUMP JUMPDEST PUSH0 PUSH1 0x20 DUP3 DUP5 SUB SLT ISZERO PUSH2 0x819 JUMPI PUSH2 0x818 PUSH2 0x7D6 JUMP JUMPDEST JUMPDEST PUSH0 PUSH2 0x826 DUP5 DUP3 DUP6 ADD PUSH2 0x7F0 JUMP JUMPDEST SWAP2 POP POP SWAP3 SWAP2 POP POP JUMP JUMPDEST PUSH0 PUSH20 0xFFFFFFFFFFFFFFFFFFFFFFFFFFFFFFFFFFFFFFFF DUP3 AND SWAP1 POP SWAP2 SWAP1 POP JUMP JUMPDEST PUSH0 PUSH2 0x858 DUP3 PUSH2 0x82F JUMP JUMPDEST SWAP1 POP SWAP2 SWAP1 POP JUMP JUMPDEST PUSH2 0x868 DUP2 PUSH2 0x84E JUMP JUMPDEST DUP3 MSTORE POP POP JUMP JUMPDEST PUSH0 PUSH1 0xA0 DUP3 ADD SWAP1 POP PUSH2 0x881 PUSH0 DUP4 ADD DUP9 PUSH2 0x7AE JUMP JUMPDEST PUSH2 0x88E PUSH1 0x20 DUP4 ADD DUP8 PUSH2 0x85F JUMP JUMPDEST PUSH2 0x89B PUSH1 0x40 DUP4 ADD DUP7 PUSH2 0x7AE JUMP JUMPDEST PUSH2 0x8A8 PUSH1 0x60 DUP4 ADD DUP6 PUSH2 0x7AE JUMP JUMPDEST PUSH2 0x8B5 PUSH1 0x80 DUP4 ADD DUP5 PUSH2 0x7AE JUMP JUMPDEST SWAP7 SWAP6 POP POP POP POP POP POP JUMP JUMPDEST PUSH2 0x8C8 DUP2 PUSH2 0x7A5 JUMP JUMPDEST DUP3 MSTORE POP POP JUMP JUMPDEST PUSH2 0x8D7 DUP2 PUSH2 0x84E JUMP JUMPDEST DUP3 MSTORE POP POP JUMP JUMPDEST PUSH1 0xA0 DUP3 ADD PUSH0 DUP3 ADD MLOAD PUSH2 0x8F1 PUSH0 DUP6 ADD DUP3 PUSH2 0x8BF JUMP JUMPDEST POP PUSH1 0x20 DUP3 ADD MLOAD PUSH2 0x904 PUSH1 0x20 DUP6 ADD DUP3 PUSH2 0x8CE JUMP JUMPDEST POP PUSH1 0x40 DUP3 ADD MLOAD PUSH2 0x917 PUSH1 0x40 DUP6 ADD DUP3 PUSH2 0x8BF JUMP JUMPDEST POP PUSH1 0x60 DUP3 ADD MLOAD PUSH2 0x92A PUSH1 0x60 DUP6 ADD DUP3 PUSH2 0x8BF JUMP JUMPDEST POP PUSH1 0x80 DUP3 ADD MLOAD PUSH2 0x93D PUSH1 0x80 DUP6 ADD DUP3 PUSH2 0x8BF JUMP JUMPDEST POP POP POP POP JUMP JUMPDEST PUSH0 PUSH1 0xA0 DUP3 ADD SWAP1 POP PUSH2 0x956 PUSH0 DUP4 ADD DUP5 PUSH2 0x8DD JUMP JUMPDEST SWAP3 SWAP2 POP POP JUMP JUMPDEST PUSH0 PUSH1 0x20 DUP3 ADD SWAP1 POP PUSH2 0x96F PUSH0 DUP4 ADD DUP5 PUSH2 0x85F JUMP JUMPDEST SWAP3 SWAP2 POP POP JUMP JUMPDEST PUSH2 0x97E DUP2 PUSH2 0x84E JUMP JUMPDEST DUP2 EQ PUSH2 0x988 JUMPI PUSH0 DUP1 REVERT JUMPDEST POP JUMP JUMPDEST PUSH0 DUP2 CALLDATALOAD SWAP1 POP PUSH2 0x999 DUP2 PUSH2 0x975 JUMP JUMPDEST SWAP3 SWAP2 POP POP JUMP JUMPDEST PUSH0 DUP1 PUSH0 PUSH1 0x60 DUP5 DUP7 SUB SLT ISZERO PUSH2 0x9B6 JUMPI PUSH2 0x9B5 PUSH2 0x7D6 JUMP JUMPDEST JUMPDEST PUSH0 PUSH2 0x9C3 DUP7 DUP3 DUP8 ADD PUSH2 0x98B JUMP JUMPDEST SWAP4 POP POP PUSH1 0x20 PUSH2 0x9D4 DUP7 DUP3 DUP8 ADD PUSH2 0x7F0 JUMP JUMPDEST SWAP3 POP POP PUSH1 0x40 PUSH2 0x9E5 DUP7 DUP3 DUP8 ADD PUSH2 0x7F0 JUMP JUMPDEST SWAP2 POP POP SWAP3 POP SWAP3 POP SWAP3 JUMP JUMPDEST PUSH0 DUP3 DUP3 MSTORE PUSH1 0x20 DUP3 ADD SWAP1 POP SWAP3 SWAP2 POP POP JUMP JUMPDEST PUSH32 0x4F6E6C7920746865206F776E65722063616E20706572666F726D207468697320 PUSH0 DUP3 ADD MSTORE PUSH32 0x616374696F6E0000000000000000000000000000000000000000000000000000 PUSH1 0x20 DUP3 ADD MSTORE POP JUMP JUMPDEST PUSH0 PUSH2 0xA59 PUSH1 0x26 DUP4 PUSH2 0x9EF JUMP JUMPDEST SWAP2 POP PUSH2 0xA64 DUP3 PUSH2 0x9FF JUMP JUMPDEST PUSH1 0x40 DUP3 ADD SWAP1 POP SWAP2 SWAP1 POP JUMP JUMPDEST PUSH0 PUSH1 0x20 DUP3 ADD SWAP1 POP DUP2 DUP2 SUB PUSH0 DUP4 ADD MSTORE PUSH2 0xA86 DUP2 PUSH2 0xA4D JUMP JUMPDEST SWAP1 POP SWAP2 SWAP1 POP JUMP JUMPDEST PUSH32 0x496E73756666696369656E742062616C616E6365000000000000000000000000 PUSH0 DUP3 ADD MSTORE POP JUMP JUMPDEST PUSH0 PUSH2 0xAC1 PUSH1 0x14 DUP4 PUSH2 0x9EF JUMP JUMPDEST SWAP2 POP PUSH2 0xACC DUP3 PUSH2 0xA8D JUMP JUMPDEST PUSH1 0x20 DUP3 ADD SWAP1 POP SWAP2 SWAP1 POP JUMP JUMPDEST PUSH0 PUSH1 0x20 DUP3 ADD SWAP1 POP DUP2 DUP2 SUB PUSH0 DUP4 ADD MSTORE PUSH2 0xAEE DUP2 PUSH2 0xAB5 JUMP JUMPDEST SWAP1 POP SWAP2 SWAP1 POP JUMP JUMPDEST PUSH32 0x4E487B7100000000000000000000000000000000000000000000000000000000 PUSH0 MSTORE PUSH1 0x11 PUSH1 0x4 MSTORE PUSH1 0x24 PUSH0 REVERT JUMPDEST PUSH0 PUSH2 0xB2C DUP3 PUSH2 0x7A5 JUMP JUMPDEST SWAP2 POP PUSH2 0xB37 DUP4 PUSH2 0x7A5 JUMP JUMPDEST SWAP3 POP DUP3 DUP3 SUB SWAP1 POP DUP2 DUP2 GT ISZERO PUSH2 0xB4F JUMPI PUSH2 0xB4E PUSH2 0xAF5 JUMP JUMPDEST JUMPDEST SWAP3 SWAP2 POP POP JUMP JUMPDEST PUSH32 0x436F6E747261637420646F6573206E6F74206578697374000000000000000000 PUSH0 DUP3 ADD MSTORE POP JUMP JUMPDEST PUSH0 PUSH2 0xB89 PUSH1 0x17 DUP4 PUSH2 0x9EF JUMP JUMPDEST SWAP2 POP PUSH2 0xB94 DUP3 PUSH2 0xB55 JUMP JUMPDEST PUSH1 0x20 DUP3 ADD SWAP1 POP SWAP2 SWAP1 POP JUMP JUMPDEST PUSH0 PUSH1 0x20 DUP3 ADD SWAP1 POP DUP2 DUP2 SUB PUSH0 DUP4 ADD MSTORE PUSH2 0xBB6 DUP2 PUSH2 0xB7D JUMP JUMPDEST SWAP1 POP SWAP2 SWAP1 POP JUMP JUMPDEST PUSH32 0x4E487B7100000000000000000000000000000000000000000000000000000000 PUSH0 MSTORE PUSH1 0x32 PUSH1 0x4 MSTORE PUSH1 0x24 PUSH0 REVERT JUMPDEST PUSH32 0x456E642074696D65206D75737420626520696E20746865206675747572650000 PUSH0 DUP3 ADD MSTORE POP JUMP JUMPDEST PUSH0 PUSH2 0xC1E PUSH1 0x1E DUP4 PUSH2 0x9EF JUMP JUMPDEST SWAP2 POP PUSH2 0xC29 DUP3 PUSH2 0xBEA JUMP JUMPDEST PUSH1 0x20 DUP3 ADD SWAP1 POP SWAP2 SWAP1 POP JUMP JUMPDEST PUSH0 PUSH1 0x20 DUP3 ADD SWAP1 POP DUP2 DUP2 SUB PUSH0 DUP4 ADD MSTORE PUSH2 0xC4B DUP2 PUSH2 0xC12 JUMP JUMPDEST SWAP1 POP SWAP2 SWAP1 POP JUMP JUMPDEST PUSH0 PUSH1 0x60 DUP3 ADD SWAP1 POP PUSH2 0xC65 PUSH0 DUP4 ADD DUP7 PUSH2 0x7AE JUMP JUMPDEST PUSH2 0xC72 PUSH1 0x20 DUP4 ADD DUP6 PUSH2 0x7AE JUMP JUMPDEST PUSH2 0xC7F PUSH1 0x40 DUP4 ADD DUP5 PUSH2 0x7AE JUMP JUMPDEST SWAP5 SWAP4 POP POP POP POP JUMP JUMPDEST PUSH0 PUSH2 0xC91 DUP3 PUSH2 0x7A5 JUMP JUMPDEST SWAP2 POP PUSH2 0xC9C DUP4 PUSH2 0x7A5 JUMP JUMPDEST SWAP3 POP DUP3 DUP3 ADD SWAP1 POP DUP1 DUP3 GT ISZERO PUSH2 0xCB4 JUMPI PUSH2 0xCB3 PUSH2 0xAF5 JUMP JUMPDEST JUMPDEST SWAP3 SWAP2 POP POP JUMP INVALID LOG2 PUSH5 0x6970667358 0x22 SLT KECCAK256 GASPRICE 0xC9 0xCA BLOCKHASH 0xAD 0xDC PUSH18 0x13E20FD1DED7D97FF839B6C003DD0F06ADB3 0xA7 DUP4 0xD1 GT KECCAK256 BLOCKHASH PUSH28 0x64736F6C634300081A00330000000000000000000000000000000000 "
				},
				"gasEstimates": {
					"creation": {
						"codeDepositCost": "662400",
						"executionCost": "29972",
						"totalCost": "692372"
					},
					"external": {
						"contracts(uint256)": "infinite",
						"createContract(address,uint256,uint256)": "infinite",
						"deposit(uint256)": "infinite",
						"getBalance()": "2433",
						"getContract(uint256)": "infinite",
						"owner()": "2527",
						"withdraw(uint256)": "infinite"
					}
				},
				"methodIdentifiers": {
					"contracts(uint256)": "474da79a",
					"createContract(address,uint256,uint256)": "b0d10c39",
					"deposit(uint256)": "b6b55f25",
					"getBalance()": "12065fe0",
					"getContract(uint256)": "6ebc8c86",
					"owner()": "8da5cb5b",
					"withdraw(uint256)": "2e1a7d4d"
				}
			},
			"storageLayout": {
				"storage": [
					{
						"astId": 3,
						"contract": "contracts/LendingContract.sol:LendingContract",
						"label": "owner",
						"offset": 0,
						"slot": "0",
						"type": "t_address"
					},
					{
						"astId": 5,
						"contract": "contracts/LendingContract.sol:LendingContract",
						"label": "balance",
						"offset": 0,
						"slot": "1",
						"type": "t_uint256"
					},
					{
						"astId": 20,
						"contract": "contracts/LendingContract.sol:LendingContract",
						"label": "contracts",
						"offset": 0,
						"slot": "2",
						"type": "t_array(t_struct(Contract)16_storage)dyn_storage"
					}
				],
				"types": {
					"t_address": {
						"encoding": "inplace",
						"label": "address",
						"numberOfBytes": "20"
					},
					"t_array(t_struct(Contract)16_storage)dyn_storage": {
						"base": "t_struct(Contract)16_storage",
						"encoding": "dynamic_array",
						"label": "struct LendingContract.Contract[]",
						"numberOfBytes": "32"
					},
					"t_struct(Contract)16_storage": {
						"encoding": "inplace",
						"label": "struct LendingContract.Contract",
						"members": [
							{
								"astId": 7,
								"contract": "contracts/LendingContract.sol:LendingContract",
								"label": "id",
								"offset": 0,
								"slot": "0",
								"type": "t_uint256"
							},
							{
								"astId": 9,
								"contract": "contracts/LendingContract.sol:LendingContract",
								"label": "customer",
								"offset": 0,
								"slot": "1",
								"type": "t_address"
							},
							{
								"astId": 11,
								"contract": "contracts/LendingContract.sol:LendingContract",
								"label": "amount",
								"offset": 0,
								"slot": "2",
								"type": "t_uint256"
							},
							{
								"astId": 13,
								"contract": "contracts/LendingContract.sol:LendingContract",
								"label": "timeStarted",
								"offset": 0,
								"slot": "3",
								"type": "t_uint256"
							},
							{
								"astId": 15,
								"contract": "contracts/LendingContract.sol:LendingContract",
								"label": "timeEnded",
								"offset": 0,
								"slot": "4",
								"type": "t_uint256"
							}
						],
						"numberOfBytes": "160"
					},
					"t_uint256": {
						"encoding": "inplace",
						"label": "uint256",
						"numberOfBytes": "32"
					}
				}
			},
			"userdoc": {
				"kind": "user",
				"methods": {},
				"version": 1
			}
		}
	}
}